{"abi":[{"type":"function","name":"decodeState","inputs":[{"name":"_encodedState","type":"uint256","internalType":"uint256"}],"outputs":[{"name":"","type":"tuple","internalType":"struct ChessLogic.DecodedState","components":[{"name":"board","type":"uint8[64]","internalType":"uint8[64]"},{"name":"turn","type":"uint8","internalType":"uint8"},{"name":"enPassantTargetSquare","type":"int16","internalType":"int16"},{"name":"whiteKingsideCastle","type":"bool","internalType":"bool"},{"name":"whiteQueensideCastle","type":"bool","internalType":"bool"},{"name":"blackKingsideCastle","type":"bool","internalType":"bool"},{"name":"blackQueensideCastle","type":"bool","internalType":"bool"},{"name":"whiteKingSquare","type":"uint8","internalType":"uint8"},{"name":"blackKingSquare","type":"uint8","internalType":"uint8"}]}],"stateMutability":"pure"},{"type":"function","name":"games","inputs":[{"name":"","type":"uint256","internalType":"uint256"}],"outputs":[{"name":"player1","type":"address","internalType":"address"},{"name":"player2","type":"address","internalType":"address"},{"name":"encodedState","type":"uint256","internalType":"uint256"},{"name":"status","type":"uint8","internalType":"enum Chess.GameStatus"}],"stateMutability":"view"},{"type":"function","name":"getGameInfo","inputs":[{"name":"_gameId","type":"uint256","internalType":"uint256"}],"outputs":[{"name":"player1","type":"address","internalType":"address"},{"name":"player2","type":"address","internalType":"address"},{"name":"status","type":"uint8","internalType":"enum Chess.GameStatus"}],"stateMutability":"view"},{"type":"function","name":"getGameState","inputs":[{"name":"_gameId","type":"uint256","internalType":"uint256"}],"outputs":[{"name":"","type":"uint256","internalType":"uint256"}],"stateMutability":"view"},{"type":"function","name":"makeMove","inputs":[{"name":"_gameId","type":"uint256","internalType":"uint256"},{"name":"_fromSquare","type":"uint8","internalType":"uint8"},{"name":"_toSquare","type":"uint8","internalType":"uint8"},{"name":"_promotionPieceType","type":"uint8","internalType":"uint8"}],"outputs":[],"stateMutability":"nonpayable"},{"type":"function","name":"nextGameId","inputs":[],"outputs":[{"name":"","type":"uint256","internalType":"uint256"}],"stateMutability":"view"},{"type":"function","name":"startGame","inputs":[{"name":"_opponent","type":"address","internalType":"address"}],"outputs":[{"name":"gameId","type":"uint256","internalType":"uint256"}],"stateMutability":"nonpayable"},{"type":"event","name":"GameEnded","inputs":[{"name":"gameId","type":"uint256","indexed":true,"internalType":"uint256"},{"name":"result","type":"uint8","indexed":false,"internalType":"enum Chess.GameStatus"},{"name":"winner","type":"address","indexed":false,"internalType":"address"}],"anonymous":false},{"type":"event","name":"GameStarted","inputs":[{"name":"gameId","type":"uint256","indexed":true,"internalType":"uint256"},{"name":"player1","type":"address","indexed":true,"internalType":"address"},{"name":"player2","type":"address","indexed":true,"internalType":"address"}],"anonymous":false},{"type":"event","name":"MoveMade","inputs":[{"name":"gameId","type":"uint256","indexed":true,"internalType":"uint256"},{"name":"player","type":"address","indexed":true,"internalType":"address"},{"name":"fromSquare","type":"uint8","indexed":false,"internalType":"uint8"},{"name":"toSquare","type":"uint8","indexed":false,"internalType":"uint8"},{"name":"promotionPieceType","type":"uint8","indexed":false,"internalType":"uint8"},{"name":"newState","type":"uint256","indexed":false,"internalType":"uint256"}],"anonymous":false},{"type":"error","name":"AlreadyInGame","inputs":[]},{"type":"error","name":"GameAlreadyOver","inputs":[]},{"type":"error","name":"GameNotActive","inputs":[]},{"type":"error","name":"GameNotFound","inputs":[]},{"type":"error","name":"InvalidEncoding","inputs":[]},{"type":"error","name":"InvalidMove","inputs":[]},{"type":"error","name":"InvalidOpponent","inputs":[]},{"type":"error","name":"InvalidSquare","inputs":[]},{"type":"error","name":"MoveLeavesKingInCheck","inputs":[]},{"type":"error","name":"NotPlayer","inputs":[]},{"type":"error","name":"PieceNotFound","inputs":[]}],"bytecode":{"object":"0x608080604052346100175761644690816200001c8239f35b5f80fdfe6080806040526004361015610012575f80fd5b5f3560e01c908163117a5b9014610ca0575080634537a22e14610bdf57806347e1d55014610b745780634a14a6cc146102e65780639c3e21ae14610107578063b135bbb0146100ea5763ffde0c7414610069575f80fd5b346100e65760206003193601126100e657600435805f525f60205273ffffffffffffffffffffffffffffffffffffffff60405f205416156100bc575f525f6020526020600260405f200154604051908152f35b60046040517f26cf189c000000000000000000000000000000000000000000000000000000008152fd5b5f80fd5b346100e6575f6003193601126100e6576020600154604051908152f35b346100e65760206003193601126100e65760043573ffffffffffffffffffffffffffffffffffffffff81168091036100e657801580156102dd575b6102b357600190815461015481610d12565b8355805f525f60205260405f20927fffffffffffffffffffffffff0000000000000000000000000000000000000000338186541617855583828601918254161790557fc570b75c000000000000000000000000000000000000000000000000c460a64c81806008915b610285575b603091505b610250575b506020947e0e0000000000000000000000000000000000000000000000000000000f000060039217600282015501907fffffffffffffffffffffffffffffffffffffffffffffffffffffffffffffff008254161790556040519133827f5b11b2d1f1a29e94e8fd947f6b5b713f3dd7fa6e1d9d5b65826d69b9aeb664eb5f80a48152f35b9060ff6038818416101561027e57839160026102789261026f86610dfa565b161b1792610de9565b906101c7565b50906101cc565b909160ff601081851610156102aa5790826102a39261026f86610dfa565b90806101bd565b509150806101c2565b60046040517fab02711d000000000000000000000000000000000000000000000000000000008152fd5b50338114610142565b346100e65760806003193601126100e65760ff60243516602435036100e65760ff60443516604435036100e65760ff60643516606435036100e6576004355f525f60205260405f2073ffffffffffffffffffffffffffffffffffffffff81541680156100bc57600382015490600560ff8316101561073357600160ff831603610b4a5760028301549060ff602061037c84610f02565b015116610b1d573303610af3576103935f91610f02565b9260ff60208501511660ff831603610a5f57604060ff6024351610801590610ae3575b8015610ad0575b610aa65760ff6103d281602435168651610e24565b51169384158015610a89575b610a5f576103f460643560443560243584611303565b15610a5f5761040e90606435906044359060243590613feb565b9360ff8316610a4e5761043560ff60e0870151165b86519061042f86610e9a565b916146bf565b610a245784515f5b604081106109b857505060ff61045860019260243590615e24565b161461095e575b83519360ff935f92855b60ff851660408110156105765760ff610482828b610e24565b5116600d81148015610561575b801561054b575b156104c157505060ff86166104b557506104af84610de9565b93610469565b9395506104af86610de9565b600e819793971491821561052a575b50811561050c575b506104e7575b6104af90610de9565b9360ff861660010361050057506104af845b90506104de565b9395506104af866104f9565b600f9150148061051d575b896104d8565b50600160ff871614610517565b909150600c82149081610540575b50908a6104d0565b603c9150148a610538565b50600f81148015610496575060ff881615610496565b50600c8114801561048f57506004821461048f565b508690888760ff8084161461090c575b60ff8085161461081d575b60ff808416148015610811575b6107e757600f936105cd9360ff9283166107da57826105c281600d935b1686610e24565b911690521690610e24565b525f90815b604060ff84161015610604576105fe9060ff6105f18186168851610e24565b511660ff61026f86610dfa565b916105d2565b8381600284015560405160ff60243516815260ff60443516602082015260ff60643516604082015282606082015233907ff53a092ed0d57aa163248bb534226b63cfe10b21eb3f634548cab15d51387818608060043592a36106658261607d565b156107685750602061067860ff92610f02565b015116610760576003905b60058210156107335760ff7fffffffffffffffffffffffffffffffffffffffffffffffffffffffffffffff006003830154169216809217600382015560058210156107335773ffffffffffffffffffffffffffffffffffffffff8091600284145f146107295754165b6106f96040518094610d05565b1660208201527f69137706d65cad5bb2a9a944e02d6c3474190ffcaf7c1eb0e70474b5a52ecc62604060043592a2005b60010154166106ec565b7f4e487b71000000000000000000000000000000000000000000000000000000005f52602160045260245ffd5b600290610683565b90610772906160df565b61077857005b60047fffffffffffffffffffffffffffffffffffffffffffffffffffffffffffffff006003921617910155604051600481525f60208201527f69137706d65cad5bb2a9a944e02d6c3474190ffcaf7c1eb0e70474b5a52ecc62604060043592a2005b826105c281600e936105bb565b60046040517fad4d102a000000000000000000000000000000000000000000000000000000008152fd5b5060ff8085161461059e565b5f959493955b604060ff8216101561090257600d60ff61083f81841686610e24565b51161480156108db575b806108ce575b61088557600e60ff61086381841686610e24565b51161480156108a7575b8061089c575b6108855761088090610de9565b610823565b9394955061089660ff851683610e24565b50610591565b5060ff821615610873565b50600c60ff6108b881841686610e24565b511614801561086d5750603c60ff82161461086d565b50600160ff83161461084f565b50600c60ff6108ec81841686610e24565b51161480156108495750600460ff821614610849565b5094929394610591565b905f95949392955b60ff811660408110156109515760ff61092f600f9285610e24565b5116146109445761093f90610de9565b610914565b9091929394955091610586565b5050909491929394610586565b60ff6024351660ff60443516115f146109a157601060ff610983602435604435610eee565b160361045f57600361099b60ff604435168651610e24565b5261045f565b601060ff6109b3604435602435610eee565b610983565b600360ff6109c68385610e24565b5116146109dc575b6109d790610d12565b61043d565b60ff8160031c16600381145f14610a0757508060016109fe6109d79385610e24565b525b90506109ce565b6004036107e757806002610a1e6109d79385610e24565b52610a00565b60046040517f637e6742000000000000000000000000000000000000000000000000000000008152fd5b61043560ff61010087015116610423565b60046040517f87822d34000000000000000000000000000000000000000000000000000000008152fd5b5060ff831660ff610a9e856024358551615c19565b1614156103de565b60046040517f4ed4a687000000000000000000000000000000000000000000000000000000008152fd5b5060ff6044351660ff60243516146103bd565b50604060ff6044351610156103b6565b60046040517fa717dfcc000000000000000000000000000000000000000000000000000000008152fd5b5073ffffffffffffffffffffffffffffffffffffffff6001840154163303610af357610393600191610f02565b60046040517fd6eab5bb000000000000000000000000000000000000000000000000000000008152fd5b346100e65760206003193601126100e6576004355f525f60205260405f2073ffffffffffffffffffffffffffffffffffffffff808254169081156100bc578260ff6003610bdd936001606097015416920154169060405193845260208401526040830190610d05565bf35b346100e6576020806003193601126100e657610bf9610d4d565b50610c05600435610f02565b90604051908251825f905b60408210610c88576109008560ff61010089828982015116610800850152604081015160010b610820850152606081015115156108408501526080810151151561086085015260a0810151151561088085015260c081015115156108a08501528260e0820151166108c08501520151166108e0820152f35b838060019260ff865116815201930191019091610c10565b346100e65760206003193601126100e6576080906004355f525f602052610bdd60405f2073ffffffffffffffffffffffffffffffffffffffff90818154169160018201541660ff60036002840154930154169285526020850152604084015260608301905b9060058210156107335752565b5f198114610d205760010190565b7f4e487b71000000000000000000000000000000000000000000000000000000005f52601160045260245ffd5b60405167ffffffffffffffff9190610120810183811182821017610dbc57819361092083019082821090821117610dbc5760405261080036823781526101005f918260208201528260408201528260608201528260808201528260a08201528260c08201528260e08201520152565b7f4e487b71000000000000000000000000000000000000000000000000000000005f52604160045260245ffd5b60ff1660ff8114610d205760010190565b60021b906103fc60fc831692168203610d2057565b60031b906107f860f8831692168203610d2057565b906040811015610e355760051b0190565b7f4e487b71000000000000000000000000000000000000000000000000000000005f52603260045260245ffd5b60ff60089116019060ff8211610d2057565b60ff60019116019060ff8211610d2057565b9060ff8091169116019060ff8211610d2057565b60ff166001039060ff8211610d2057565b60ff7ffffffffffffffffffffffffffffffffffffffffffffffffffffffffffffffff89116019060ff8211610d2057565b60ff5f199116019060ff8211610d2057565b9060ff8091169116039060ff8211610d2057565b610f0a610d4d565b91604092838101905f19825260e081019160ff9182845261010081019183835283915f5b8581168a8110156110c55786600f808c83610f4887610dfa565b161c1680610f57858851610e24565b526003808214611053575b50600d8114801561103e575b15610fb75750508089511603610f8e578752610f8990610de9565b610f2e565b60048b517fad4d102a000000000000000000000000000000000000000000000000000000008152fd5b600e81148015611029575b15610fdd5750508087511603610f8e578552610f8990610de9565b91925014610ff0575b50610f8990610de9565b8091941603611000578285610fe6565b600489517fad4d102a000000000000000000000000000000000000000000000000000000008152fd5b50600c81148015610fc25750603c8414610fc2565b50600c81148015610f6e575060048414610f6e565b85811c601f1690810361107857508261106b86610eab565b1660010b87525b5f610f62565b91925090600490810361109e57509088918261109386610e62565b1660010b8752611072565b8d517fad4d102a000000000000000000000000000000000000000000000000000000008152fd5b5050979492939596505084809116818114155f14611273578251821682148080611266575b1561120d5750828293918392525f60208a01525b511614918215611200575b50506111d7575082518160808201511690600c918281149081156111cc575b508361078083015116938385149485156111c1575b5090818185859460e0899701511614958083865116149261070082826107e08901511614960151161495816111b9575b5015156060890152816111b1575b5015156080870152816111a9575b50151560a0850152816111a1575b50151560c0830152565b90505f611197565b90505f611189565b90505f61117b565b90505f61116d565b600e1494505f61113d565b600f9150145f611128565b600490517fad4d102a000000000000000000000000000000000000000000000000000000008152fd5b819250511614825f611109565b90918085511614908161125d575b50156112345784809281928552600160208a01526110fe565b600484517fad4d102a000000000000000000000000000000000000000000000000000000008152fd5b9050155f61121b565b50828086511614156110ea565b5050855184600f816080840151161491826112f1575b5050806112e5575b806112d8575b156112af5783808260048294525f60208a01526110fe565b600483517fad4d102a000000000000000000000000000000000000000000000000000000008152fd5b50603c8483511614611297565b50838082511614611291565b600e925061078001511614845f611289565b92611317845160ff91829182861690610e24565b511681611328875182881690610e24565b51168651908361134160208a0193888386511691615c19565b911515928361148a575b5050506114805761135d848392615e24565b1691600183146114725750600482146113c45750600681146113b957600881146113ae57600a81146113a357600d14611397575050505f90565b6113a092613c81565b90565b506113a09251612693565b506113a09251612555565b506113a092516123af565b93505080601f60078593169160031c1690601f600785169460031c16938181115f1461146357906113f491610eee565b925b81811115611454579061140891610eee565b915b1691600183149283611447575b8315611424575b50505090565b6002149250908261143a575b50505f808061141e565b6001925016145f80611430565b8282166002149350611417565b61145d91610eee565b9161140a565b61146c91610eee565b926113f6565b93929150506113a0936114ac565b5050505050505f90565b8192935061149f9089838c5192511691615c19565b92169116145f838161134b565b909291815193602083016114c760ff96838884511691615c19565b601f8360031c1690601f8560031c16918860078616600788168181115f146118ae57906114f391610eee565b166001958a8783149416155f14611702578a61150e84610e74565b168514806116fa575b806116e2575b6116b957908a83928882951492836116ae575b836116a5575b5082611689575b505080611671575b611664578261164f575b5050611561575b505050505050505f90565b6007148451918388806115778189168097610e24565b511615159283611631575b5050506115e65750855f604086015180940b121592836115da575b5050506115ad575b808080611556565b6115c78491826115c06003955192610eab565b1690610e24565b5116146115d55780806115a5565b161590565b161490505f858161159d565b9250509391508080611621575b6116195715918261160d575b50506116085790565b505f90565b16151590505f806115ff565b505050505f90565b5061162b83616013565b156115f3565b8192935087611645928a5192511691615c19565b161483885f611582565b61165a919250610e74565b168114875f61154f565b5050505050505050161590565b50816116818951828a1690610e24565b511615611545565b8161169b9293506115c08c5192610e62565b511615825f61153d565b1592505f611536565b600388149350611530565b5050505091959350506007915014808091611621576116195715918261160d5750506116085790565b508a6116f28a51828b1690610e24565b51161561151d565b508115611517565b8a61170c84610edc565b168514806118a6575b8061188e575b61186857908a83926006829514928361185d575b83611854575b5082611838575b505080611820575b611664578261180b575b505061175f57505050505050505f90565b1584519187806117728188168096610e24565b5116151591826117ef575b50506117c55750855f604086015180940b121592836117b9575b5050506117a657808080611556565b6115c78491826115c06003955192610e62565b161490505f8581611797565b92505093915080806117e5576116195715918261160d5750506116085790565b5061162b83615fcf565b8192508661180292895192511691615c19565b1615875f61177d565b611816919250610edc565b168114875f61174e565b50816118308951828a1690610e24565b511615611744565b8161184a9293506115c08c5192610eab565b511615825f61173c565b1592505f611735565b60048814935061172f565b50505050925050939150158080916117e5576116195715918261160d5750506116085790565b508a61189e8a51828b1690610e24565b51161561171b565b508115611715565b6118b791610eee565b6114f3565b5f0b60050390607f8213607f19831217610d2057565b5f0b60070390607f8213607f19831217610d2057565b5f0b60060390607f8213607f19831217610d2057565b5f0b60030390607f8213607f19831217610d2057565b5f0b60020390607f8213607f19831217610d2057565b5f0b5f0390607f8213607f19831217610d2057565b905f0b905f0b0390607f8213607f19831217610d2057565b905f0b905f0b0190607f198212607f831317610d2057565b6007905f93601f838516860b9460031c16850b9161198c856118bc565b94611996846118d2565b956119a081616057565b6119a988616057565b890b90890b149081611afe575b880b908015611af7575b15611aed57879291836119fd928181135f14611ad657505060019889985b810b81811315611ab95750506119f76001988992611957565b95611957565b935b80830b60058114801590611aad575b15611a9f578686850b91858312928315611a95575b508215611a8b575b8215611a81575b50506107e75760ff611a5c81611a55611a4c898316610e0f565b85831690610e86565b1684610e24565b5116611a7657866119f789611a7093611957565b936119ff565b505093509350505090565b139050865f611a32565b8581129250611a2b565b821292505f611a23565b505050509350505050600190565b508686850b1415611a0e565b1215611acd576119f75f195b988992611957565b6119f784611ac5565b1215611ae7575f195b9889986119de565b83611adf565b5091945050505050565b50876119c0565b80890b151591506119b6565b6007905f93601f838516860b9460031c16850b91611b27856118e8565b94611b31846118d2565b95611b3b81616057565b611b4488616057565b890b90890b149081611c2b575b880b908015611c24575b15611aed5787929183611b91928181135f14611ad65750506001988998810b81811315611ab95750506119f76001988992611957565b935b80830b60068114801590611c18575b15611a9f578686850b91858312928315611c0e575b508215611c04575b8215611bfa575b50506107e75760ff611be081611a55611a4c898316610e0f565b5116611a7657866119f789611bf493611957565b93611b93565b139050865f611bc6565b8581129250611bbf565b821292505f611bb7565b508686850b1415611ba2565b5087611b5b565b80890b15159150611b51565b906007905f93828216850b93601f600393841c16860b92611c57866118fe565b95611c61856118d2565b96611c6b81616057565b611c7489616057565b8a0b908a0b149081611dc3575b890b908015611dbc575b15611db1578893929184611cc9928181135f14611d9a5750506001998a995b810b81811315611d7d575050611cc36001998a92611957565b96611957565b945b80840b828114801590611d71575b15611d62578787860b91868312928315611d58575b508215611d4e575b8215611d44575b50506107e75760ff611d1e81611d17611a4c8a8316610e0f565b1685610e24565b5116611d385787611cc38a611d3293611957565b94611ccb565b50505093509350505090565b139050875f611cfd565b8681129250611cf6565b821292505f611cee565b50505050509350505050600190565b508787860b1415611cd9565b1215611d9157611cc35f195b998a92611957565b611cc385611d89565b1215611dab575f195b998a99611caa565b84611da3565b509295505050505050565b5088611c8b565b808a0b15159150611c81565b6007905f93601f838516860b9460031c16850b91611dec85611914565b94611df6846118d2565b95611e0081616057565b611e0988616057565b890b90890b149081611ef0575b880b908015611ee9575b15611aed5787929183611e56928181135f14611ad65750506001988998810b81811315611ab95750506119f76001988992611957565b935b80830b60028114801590611edd575b15611a9f578686850b91858312928315611ed3575b508215611ec9575b8215611ebf575b50506107e75760ff611ea581611a55611a4c898316610e0f565b5116611a7657866119f789611eb993611957565b93611e58565b139050865f611e8b565b8581129250611e84565b821292505f611e7c565b508686850b1415611e67565b5087611e20565b80890b15159150611e16565b6007905f93601f838516860b9460031c16850b91611f19856118bc565b94611f238461192a565b95611f2d81616057565b611f3688616057565b890b90890b14908161201c575b880b908015612015575b15611aed5787929183611f83928181135f14611ad65750506001988998810b81811315611ab95750506119f76001988992611957565b935b80830b6005811480159061200a575b15611a9f578686850b91858312928315612000575b508215611ff6575b8215611fec575b50506107e75760ff611fd281611a55611a4c898316610e0f565b5116611a7657866119f789611fe693611957565b93611f85565b139050865f611fb8565b8581129250611fb1565b821292505f611fa9565b5085840b1515611f94565b5087611f4d565b80890b15159150611f43565b6007905f93601f838516860b9460031c16850b91612045856118e8565b9461204f8461192a565b9561205981616057565b61206288616057565b890b90890b149081612148575b880b908015612141575b15611aed57879291836120af928181135f14611ad65750506001988998810b81811315611ab95750506119f76001988992611957565b935b80830b60068114801590612136575b15611a9f578686850b9185831292831561212c575b508215612122575b8215612118575b50506107e75760ff6120fe81611a55611a4c898316610e0f565b5116611a7657866119f78961211293611957565b936120b1565b139050865f6120e4565b85811292506120dd565b821292505f6120d5565b5085840b15156120c0565b5087612079565b80890b1515915061206f565b906007905f93828216850b93601f600393841c16860b92612174866118fe565b9561217e8561192a565b9661218881616057565b61219189616057565b8a0b908a0b149081612277575b890b908015612270575b15611db15788939291846121df928181135f14611d9a5750506001998a99810b81811315611d7d575050611cc36001998a92611957565b945b80840b828114801590612265575b15611d62578787860b9186831292831561225b575b508215612251575b8215612247575b50506107e75760ff61222d81611d17611a4c8a8316610e0f565b5116611d385787611cc38a61224193611957565b946121e1565b139050875f612213565b868112925061220c565b821292505f612204565b5086850b15156121ef565b50886121a8565b808a0b1515915061219e565b6007905f93601f838516860b9460031c16850b916122a085611914565b946122aa8461192a565b956122b481616057565b6122bd88616057565b890b90890b1490816123a3575b880b90801561239c575b15611aed578792918361230a928181135f14611ad65750506001988998810b81811315611ab95750506119f76001988992611957565b935b80830b60028114801590612391575b15611a9f578686850b91858312928315612387575b50821561237d575b8215612373575b50506107e75760ff61235981611a55611a4c898316610e0f565b5116611a7657866119f78961236d93611957565b9361230c565b139050865f61233f565b8581129250612338565b821292505f612330565b5085840b151561231b565b50876122d4565b80890b151591506122ca565b9290916007915f94601f848616870b9560031c16860b92601f858216880b9160031c16870b946123df878361193f565b966123ea868861193f565b976123f481616057565b6123fd8a616057565b8b0b908b0b149081612549575b8a0b908015612542575b1561253657899493929185612453928181135f1461251f57505060019a8b9a5b810b8181131561250257505061244d60019a8b92611957565b97611957565b955b80850b8381148015906124f6575b156124e6578288870b918783129283156124dc575b5082156124d2575b82156124c8575b50506107e75760ff6124a1816105bb611a4c8b8316610e0f565b51166124bb578861244d8b6124b593611957565b95612455565b5050505093509350505090565b139050825f612487565b8781129250612480565b821292505f612478565b5050505050509350505050600190565b508888870b1415612463565b12156125165761244d5f195b9a8b92611957565b61244d8661250e565b1215612530575f195b9a8b9a612434565b85612528565b50939650505050505050565b5089612414565b808b0b1515915061240a565b9290916007915f94601f848616870b9560031c16860b92601f858216880b9160031c16870b94612585878361193f565b96612590868861193f565b97890b80158080612687575b811561266e575b5015612536578994939291856125dc928181135f1461251f57505060019a8b9a810b8181131561250257505061244d60019a8b92611957565b955b80850b838114801590612662575b156124e6578288870b91878312928315612658575b50821561264e575b8215612644575b50506107e75760ff61262a816105bb611a4c8b8316610e0f565b51166124bb578861244d8b61263e93611957565b956125de565b139050825f612610565b8781129250612609565b821292505f612601565b508888870b14156125ec565b9050158061267d575b5f6125a3565b50888a0b15612677565b8a8c0b1515915061259c565b9290916007915f94601f848616870b9560031c16860b92601f858216880b9160031c16870b946126c3878361193f565b966126ce868861193f565b976126d881616057565b6126e18a616057565b8b0b908b0b149081612801575b8a0b90811580806127f5575b81156127dc575b5081156127d4575b501561253657899493929185612742928181135f1461251f57505060019a8b9a810b8181131561250257505061244d60019a8b92611957565b955b80850b8381148015906127c8575b156124e6578288870b918783129283156127be575b5082156127b4575b82156127aa575b50506107e75760ff612790816105bb611a4c8b8316610e0f565b51166124bb578861244d8b6127a493611957565b95612744565b139050825f612776565b878112925061276f565b821292505f612767565b508888870b1415612752565b90505f612709565b905015806127eb575b5f612701565b50898b0b156127e5565b8b8d0b151591506126fa565b808b0b151591506126ee565b6007905f93601f838516860b9460031c16850b9161282a856118bc565b94612834846118d2565b95870b8015808061292a575b8115612911575b5015611aed578792918361287e928181135f14611ad65750506001988998810b81811315611ab95750506119f76001988992611957565b935b80830b60058114801590612905575b15611a9f578686850b918583129283156128fb575b5082156128f1575b82156128e7575b50506107e75760ff6128cd81611a55611a4c898316610e0f565b5116611a7657866119f7896128e193611957565b93612880565b139050865f6128b3565b85811292506128ac565b821292505f6128a4565b508686850b141561288f565b90501580612920575b5f612847565b5086880b1561291a565b888a0b15159150612840565b6007905f93601f838516860b9460031c16850b91612953856118e8565b9461295d846118d2565b95870b80158080612a53575b8115612a3a575b5015611aed57879291836129a7928181135f14611ad65750506001988998810b81811315611ab95750506119f76001988992611957565b935b80830b60068114801590612a2e575b15611a9f578686850b91858312928315612a24575b508215612a1a575b8215612a10575b50506107e75760ff6129f681611a55611a4c898316610e0f565b5116611a7657866119f789612a0a93611957565b936129a9565b139050865f6129dc565b85811292506129d5565b821292505f6129cd565b508686850b14156129b8565b90501580612a49575b5f612970565b5086880b15612a43565b888a0b15159150612969565b906007905f93828216850b93601f600393841c16860b92612a7f866118fe565b95612a89856118d2565b96880b80158080612b7f575b8115612b66575b5015611db1578893929184612ad4928181135f14611d9a5750506001998a99810b81811315611d7d575050611cc36001998a92611957565b945b80840b828114801590612b5a575b15611d62578787860b91868312928315612b50575b508215612b46575b8215612b3c575b50506107e75760ff612b2281611d17611a4c8a8316610e0f565b5116611d385787611cc38a612b3693611957565b94612ad6565b139050875f612b08565b8681129250612b01565b821292505f612af9565b508787860b1415612ae4565b90501580612b75575b5f612a9c565b5087890b15612b6f565b898b0b15159150612a95565b6007905f93601f838516860b9460031c16850b91612ba885611914565b94612bb2846118d2565b95870b80158080612ca8575b8115612c8f575b5015611aed5787929183612bfc928181135f14611ad65750506001988998810b81811315611ab95750506119f76001988992611957565b935b80830b60028114801590612c83575b15611a9f578686850b91858312928315612c79575b508215612c6f575b8215612c65575b50506107e75760ff612c4b81611a55611a4c898316610e0f565b5116611a7657866119f789612c5f93611957565b93612bfe565b139050865f612c31565b8581129250612c2a565b821292505f612c22565b508686850b1415612c0d565b90501580612c9e575b5f612bc5565b5086880b15612c98565b888a0b15159150612bbe565b6007905f93601f838516860b9460031c16850b91612cd1856118bc565b94612cdb8461192a565b95870b80158080612dd0575b8115612db7575b5015611aed5787929183612d25928181135f14611ad65750506001988998810b81811315611ab95750506119f76001988992611957565b935b80830b60058114801590612dac575b15611a9f578686850b91858312928315612da2575b508215612d98575b8215612d8e575b50506107e75760ff612d7481611a55611a4c898316610e0f565b5116611a7657866119f789612d8893611957565b93612d27565b139050865f612d5a565b8581129250612d53565b821292505f612d4b565b5085840b1515612d36565b90501580612dc6575b5f612cee565b5086880b15612dc0565b888a0b15159150612ce7565b6007905f93601f838516860b9460031c16850b91612df9856118e8565b94612e038461192a565b95870b80158080612ef8575b8115612edf575b5015611aed5787929183612e4d928181135f14611ad65750506001988998810b81811315611ab95750506119f76001988992611957565b935b80830b60068114801590612ed4575b15611a9f578686850b91858312928315612eca575b508215612ec0575b8215612eb6575b50506107e75760ff612e9c81611a55611a4c898316610e0f565b5116611a7657866119f789612eb093611957565b93612e4f565b139050865f612e82565b8581129250612e7b565b821292505f612e73565b5085840b1515612e5e565b90501580612eee575b5f612e16565b5086880b15612ee8565b888a0b15159150612e0f565b906007905f93828216850b93601f600393841c16860b92612f24866118fe565b95612f2e8561192a565b96880b80158080613023575b811561300a575b5015611db1578893929184612f79928181135f14611d9a5750506001998a99810b81811315611d7d575050611cc36001998a92611957565b945b80840b828114801590612fff575b15611d62578787860b91868312928315612ff5575b508215612feb575b8215612fe1575b50506107e75760ff612fc781611d17611a4c8a8316610e0f565b5116611d385787611cc38a612fdb93611957565b94612f7b565b139050875f612fad565b8681129250612fa6565b821292505f612f9e565b5086850b1515612f89565b90501580613019575b5f612f41565b5087890b15613013565b898b0b15159150612f3a565b6007905f93601f838516860b9460031c16850b9161304c85611914565b946130568461192a565b95870b8015808061314b575b8115613132575b5015611aed57879291836130a0928181135f14611ad65750506001988998810b81811315611ab95750506119f76001988992611957565b935b80830b60028114801590613127575b15611a9f578686850b9185831292831561311d575b508215613113575b8215613109575b50506107e75760ff6130ef81611a55611a4c898316610e0f565b5116611a7657866119f78961310393611957565b936130a2565b139050865f6130d5565b85811292506130ce565b821292505f6130c6565b5085840b15156130b1565b90501580613141575b5f613069565b5086880b1561313b565b888a0b15159150613062565b6007905f93601f838516860b9460031c16850b91613174856118bc565b9461317e846118d2565b9561318881616057565b61319188616057565b890b90890b1490816132b0575b880b90811580806132a4575b811561328b575b508115613283575b5015611aed57879291836131f0928181135f14611ad65750506001988998810b81811315611ab95750506119f76001988992611957565b935b80830b60058114801590613277575b15611a9f578686850b9185831292831561326d575b508215613263575b8215613259575b50506107e75760ff61323f81611a55611a4c898316610e0f565b5116611a7657866119f78961325393611957565b936131f2565b139050865f613225565b858112925061321e565b821292505f613216565b508686850b1415613201565b90505f6131b9565b9050158061329a575b5f6131b1565b5087890b15613294565b898b0b151591506131aa565b80890b1515915061319e565b6007905f93601f838516860b9460031c16850b916132d9856118e8565b946132e3846118d2565b956132ed81616057565b6132f688616057565b890b90890b149081613415575b880b9081158080613409575b81156133f0575b5081156133e8575b5015611aed5787929183613355928181135f14611ad65750506001988998810b81811315611ab95750506119f76001988992611957565b935b80830b600681148015906133dc575b15611a9f578686850b918583129283156133d2575b5082156133c8575b82156133be575b50506107e75760ff6133a481611a55611a4c898316610e0f565b5116611a7657866119f7896133b893611957565b93613357565b139050865f61338a565b8581129250613383565b821292505f61337b565b508686850b1415613366565b90505f61331e565b905015806133ff575b5f613316565b5087890b156133f9565b898b0b1515915061330f565b80890b15159150613303565b906007905f93828216850b93601f600393841c16860b92613441866118fe565b9561344b856118d2565b9661345581616057565b61345e89616057565b8a0b908a0b14908161357d575b890b9081158080613571575b8115613558575b508115613550575b5015611db15788939291846134be928181135f14611d9a5750506001998a99810b81811315611d7d575050611cc36001998a92611957565b945b80840b828114801590613544575b15611d62578787860b9186831292831561353a575b508215613530575b8215613526575b50506107e75760ff61350c81611d17611a4c8a8316610e0f565b5116611d385787611cc38a61352093611957565b946134c0565b139050875f6134f2565b86811292506134eb565b821292505f6134e3565b508787860b14156134ce565b90505f613486565b90501580613567575b5f61347e565b50888a0b15613561565b8a8c0b15159150613477565b808a0b1515915061346b565b6007905f93601f838516860b9460031c16850b916135a685611914565b946135b0846118d2565b956135ba81616057565b6135c388616057565b890b90890b1490816136e2575b880b90811580806136d6575b81156136bd575b5081156136b5575b5015611aed5787929183613622928181135f14611ad65750506001988998810b81811315611ab95750506119f76001988992611957565b935b80830b600281148015906136a9575b15611a9f578686850b9185831292831561369f575b508215613695575b821561368b575b50506107e75760ff61367181611a55611a4c898316610e0f565b5116611a7657866119f78961368593611957565b93613624565b139050865f613657565b8581129250613650565b821292505f613648565b508686850b1415613633565b90505f6135eb565b905015806136cc575b5f6135e3565b5087890b156136c6565b898b0b151591506135dc565b80890b151591506135d0565b6007905f93601f838516860b9460031c16850b9161370b856118bc565b946137158461192a565b9561371f81616057565b61372888616057565b890b90890b149081613846575b880b908115808061383a575b8115613821575b508115613819575b5015611aed5787929183613787928181135f14611ad65750506001988998810b81811315611ab95750506119f76001988992611957565b935b80830b6005811480159061380e575b15611a9f578686850b91858312928315613804575b5082156137fa575b82156137f0575b50506107e75760ff6137d681611a55611a4c898316610e0f565b5116611a7657866119f7896137ea93611957565b93613789565b139050865f6137bc565b85811292506137b5565b821292505f6137ad565b5085840b1515613798565b90505f613750565b90501580613830575b5f613748565b5087890b1561382a565b898b0b15159150613741565b80890b15159150613735565b6007905f93601f838516860b9460031c16850b9161386f856118e8565b946138798461192a565b9561388381616057565b61388c88616057565b890b90890b1490816139aa575b880b908115808061399e575b8115613985575b50811561397d575b5015611aed57879291836138eb928181135f14611ad65750506001988998810b81811315611ab95750506119f76001988992611957565b935b80830b60068114801590613972575b15611a9f578686850b91858312928315613968575b50821561395e575b8215613954575b50506107e75760ff61393a81611a55611a4c898316610e0f565b5116611a7657866119f78961394e93611957565b936138ed565b139050865f613920565b8581129250613919565b821292505f613911565b5085840b15156138fc565b90505f6138b4565b90501580613994575b5f6138ac565b5087890b1561398e565b898b0b151591506138a5565b80890b15159150613899565b906007905f93828216850b93601f600393841c16860b926139d6866118fe565b956139e08561192a565b966139ea81616057565b6139f389616057565b8a0b908a0b149081613b11575b890b9081158080613b05575b8115613aec575b508115613ae4575b5015611db1578893929184613a53928181135f14611d9a5750506001998a99810b81811315611d7d575050611cc36001998a92611957565b945b80840b828114801590613ad9575b15611d62578787860b91868312928315613acf575b508215613ac5575b8215613abb575b50506107e75760ff613aa181611d17611a4c8a8316610e0f565b5116611d385787611cc38a613ab593611957565b94613a55565b139050875f613a87565b8681129250613a80565b821292505f613a78565b5086850b1515613a63565b90505f613a1b565b90501580613afb575b5f613a13565b50888a0b15613af5565b8a8c0b15159150613a0c565b808a0b15159150613a00565b6007905f93601f838516860b9460031c16850b91613b3a85611914565b94613b448461192a565b95613b4e81616057565b613b5788616057565b890b90890b149081613c75575b880b9081158080613c69575b8115613c50575b508115613c48575b5015611aed5787929183613bb6928181135f14611ad65750506001988998810b81811315611ab95750506119f76001988992611957565b935b80830b60028114801590613c3d575b15611a9f578686850b91858312928315613c33575b508215613c29575b8215613c1f575b50506107e75760ff613c0581611a55611a4c898316610e0f565b5116611a7657866119f789613c1993611957565b93613bb8565b139050865f613beb565b8581129250613be4565b821292505f613bdc565b5085840b1515613bc7565b90505f613b7f565b90501580613c5f575b5f613b77565b5087890b15613c59565b898b0b15159150613b70565b80890b15159150613b64565b805192613c9860ff94848660208601511691615c19565b600784169085601f8660031c166007851693601f8660031c16948181115f14613fdc5790613cc591610eee565b935b81811115613fcd5790613cd991610eee565b925b1660018111159081613fbf575b81613fa4575b50613f9957858516918660028180871696898789115f14613f8a57613d1291610eee565b16149182613f7f575b5050613d2b575050505050505f90565b613d40613d3782610e9a565b809686516146bf565b611480578516801580613f75575b15613e575750506006811480613e4a575b613df75760021480613dea575b613d7f575050505b5f8080808080611480565b805183606082015116159384613ddb575b84613dcc575b5083613db7575b5082613da857505090565b613db392505161465a565b1590565b613dc491935082906145f5565b15915f613d9d565b6020820151161593505f613d96565b60408201518116159450613d90565b5060808101511515613d6c565b5080518360a082015116159384613e3b575b5083613e26575b5082613e1b57505090565b613db3925051614590565b613e33919350829061452b565b15915f613e10565b60c0820151161593505f613e09565b5060608201511515613d5f565b6001149081613f6a575b50613e70575b50505050613d74565b603e811480613f5d575b613f0857603a1480613efb575b613e915780613e67565b80518361076082015116159384613eeb575b84613edb575b5083613ec6575b5082613ebb57505090565b613db39250516144c6565b613ed39193508290614461565b15915f613eb0565b610720820151161593505f613ea9565b6107408201518116159450613ea3565b5060c08101511515613e87565b508051836107a082015116159384613f4d575b5083613f38575b5082613f2d57505090565b613db39250516143fc565b613f459193508290614387565b15915f613f22565b6107c0820151161593505f613f1b565b5060a08201511515613e7a565b603c9150145f613e61565b5060048214613d4e565b16159050865f613d1b565b90613f9491610eee565b613d12565b505050505050600190565b1580159150613fb4575b5f613cee565b508582161515613fae565b600184891611159150613ce8565b613fd691610eee565b92613cdb565b613fe591610eee565b93613cc7565b929091613ff6610d4d565b50835160ff9283918261400c8188168093610e24565b5116936140228851888660208c01511691615c19565b948461402e8983615e24565b169360018514918a8380614376575b80614365575b61430f575b5083871699858b11156142ff5761405f8186610eee565b905b600d8814988992836142f2575b5050816142dc575b50614220575b5f956140ea959493929190600c82036141ed578888146141b45750508888161586146141aa5781601f600d5b945b60031c169061415a575b5050876140c28a8c51610e24565b511615159081614125575b50614113575b866140df898b51610e24565b911690528751610e24565b526140f55750505090565b166141085760e08201525b5f808061141e565b610100820152614100565b8361411f898b51610e24565b526140d3565b905080614149575b8061413a575b155f6140cd565b508660408a0151168814614133565b508360408a015160010b121561412d565b898916908115918261419f575b8215614183575b505061417b575b806140b4565b91505f614175565b600114915081614196575b505f8061416e565b9050155f61418e565b600782149250614167565b81601f600e6140a8565b9093906008146141c8575b601f83916140aa565b92508888161586146141e35781601f60085b949150506141bf565b81601f60096141da565b50878714614216575088881615861461420c5781601f600d5b946140aa565b81601f600e614206565b92601f83916140aa565b9392919060068a03614283576007946005968c600c8c614248816008945b519b16809b610e24565b511603610a5f576142756140ea988f5f9b938f61426b8e96828551911690610e24565b9116905251610e24565b52965090919293945061407c565b60028a036142a0575f946003968c600c8c6142488160089461423e565b603e8a036142be57603f94603d968c600c8c6142488160099461423e565b603a8a03610a5f57603894603b968c600c8c6142488160099461423e565b9050601f808660031c169160031c16145f614076565b1660021491508a5f61406e565b6143098582610eee565b90614061565b965087891661434f576003896143348161432888610eab565b9a5b519a16809a610e24565b511603610a5f575f6143488a988d51610e24565b528a614048565b6003896143348161435f88610e62565b9a61432a565b508760408201511688861614614043565b505f604082015160010b121561403d565b5f5b60ff80821660408110156143f3576143a2829185610e24565b51166143b8575b506143b390610de9565b614389565b6143cb6143c485610e9a565b8385615c19565b8116908416146143dc575b5f6143a9565b6143e68183614727565b156143d657505050600190565b50505050505f90565b5f5b60ff80821660408110156143f357614417829185610e24565b511661442d575b5061442890610de9565b6143fe565b6144396143c485610e9a565b81169084161461444a575b5f61441e565b6144548183614b24565b1561444457505050600190565b5f5b60ff80821660408110156143f35761447c829185610e24565b5116614492575b5061448d90610de9565b614463565b61449e6143c485610e9a565b8116908416146144af575b5f614483565b6144b98183614d43565b156144a957505050600190565b5f5b60ff80821660408110156143f3576144e1829185610e24565b51166144f7575b506144f290610de9565b6144c8565b6145036143c485610e9a565b811690841614614514575b5f6144e8565b61451e8183614f62565b1561450e57505050600190565b5f5b60ff80821660408110156143f357614546829185610e24565b511661455c575b5061455790610de9565b61452d565b6145686143c485610e9a565b811690841614614579575b5f61454d565b6145838183615181565b1561457357505050600190565b5f5b60ff80821660408110156143f3576145ab829185610e24565b51166145c1575b506145bc90610de9565b614592565b6145cd6143c485610e9a565b8116908416146145de575b5f6145b2565b6145e881836153dc565b156145d857505050600190565b5f5b60ff80821660408110156143f357614610829185610e24565b5116614626575b5061462190610de9565b6145f7565b6146326143c485610e9a565b811690841614614643575b5f614617565b61464d81836155d2565b1561463d57505050600190565b5f5b60ff80821660408110156143f357614675829185610e24565b511661468b575b5061468690610de9565b61465c565b6146976143c485610e9a565b8116908416146146a8575b5f61467c565b6146b281836157c8565b156146a257505050600190565b5f5b60ff8082166040811015611480576146da829185610e24565b51166146f0575b506146eb90610de9565b6146c1565b6146fc6143c486610e9a565b81169085161461470d575b5f6146e1565b6147188382846159be565b15614707575b50505050600190565b9060ff8061473781841685610e24565b5116928315611619578161474b8486615e24565b16600194858214614a0d57506004918282146149335760068214614925576008821461491757600a82146149095750600d1461478957505050505f90565b601f600784169360031c16925f816005115f146148c9575060050382811161489d57925b5f816007115f1461483c57506007039082821161481057508190925b16838111159384614803575b50836147e15750505090565b15801593509091906147f75750505f808061141e565b16151590505f80611430565b838316111593505f6147d5565b6011907f4e487b71000000000000000000000000000000000000000000000000000000005f525260245ffd5b907ffffffffffffffffffffffffffffffffffffffffffffffffffffffffffffffff901918383116148715750508190926147c9565b9060116024927f4e487b7100000000000000000000000000000000000000000000000000000000835252fd5b6011827f4e487b71000000000000000000000000000000000000000000000000000000005f525260245ffd5b9060041901908382116148dd5750926147ad565b806011847f4e487b71000000000000000000000000000000000000000000000000000000006024945252fd5b925050506113a09250613157565b925050506113a0925061280d565b925050506113a0925061196f565b5050601f600784959395169360031c16925f816005115f146149f9575060050384811161489d57925b5f816007115f146149c457506007039084821161481057508390925b169281841493846149b7575b8415614992575b5050505090565b60021493509091836149ab575b5050505f80808061498b565b161490505f808061499f565b8382166002149450614984565b907ffffffffffffffffffffffffffffffffffffffffffffffffffffffffffffffff90191858311614871575050839092614978565b9060041901908582116148dd57509261495c565b9150505f939293908381148015614b0a575b15614ac85750505f925b6007601f8260031c1691165f816005115f14614a83575060050390828211610d2057828092955b16614a7a57614a5e90610e74565b166007149283614a6e5750505090565b161490505f808061141e565b614a5e90610edc565b906004190190838211614a9b57509082809295614a50565b807f4e487b7100000000000000000000000000000000000000000000000000000000602492526011600452fd5b60028114908115614ae9575b5015614ae257508192614a29565b9250505090565b600391501480614afa575b5f614ad4565b506004601f8560031c1614614af4565b50600381148015614a1f57506003601f86821c1614614a1f565b9060ff80614b3481841685610e24565b51169283156116195781614b488486615e24565b16600194858214614c865750600491828214614c185760068214614c0a5760088214614bfc57600a8214614bee5750600d14614b8657505050505f90565b601f600784169360031c16925f816006115f14614bda575060060382811161489d57925f816007115f1461483c57506007039082821161481057509181168381111593846148035750836147e15750505090565b9060051901908382116148dd5750926147ad565b925050506113a092506132bc565b925050506113a09250612936565b925050506113a09250611b0a565b5050601f600784959395169360031c16925f816006115f14614c72575060060384811161489d57925f816007115f146149c457506007039084821161481057509183168181149390846149b7578415614992575050505090565b9060051901908582116148dd57509261495c565b9150505f939293908381148015614d29575b15614cee5750505f925b6007601f8260031c1691165f816006115f14614cd6575060060390828211610d20578280929516614a7a57614a5e90610e74565b906005190190838211614a9b57509082809295614a50565b60028114908115614d08575b5015614ae257508192614ca2565b600391501480614d19575b5f614cfa565b506004601f8560031c1614614d13565b50600381148015614c9857506003601f86821c1614614c98565b9060ff80614d5381841685610e24565b51169283156116195781614d678486615e24565b16600194858214614ea55750600491828214614e375760068214614e295760088214614e1b57600a8214614e0d5750600d14614da557505050505f90565b601f600784169360031c16925f816003115f14614df9575060030382811161489d57925f816007115f1461483c57506007039082821161481057509181168381111593846148035750836147e15750505090565b9060021901908382116148dd5750926147ad565b925050506113a09250613421565b925050506113a09250612a5f565b925050506113a09250611c37565b5050601f600784959395169360031c16925f816003115f14614e91575060030384811161489d57925f816007115f146149c457506007039084821161481057509183168181149390846149b7578415614992575050505090565b9060021901908582116148dd57509261495c565b9150505f939293908381148015614f48575b15614f0d5750505f925b6007601f8260031c1691165f816003115f14614ef5575060030390828211610d20578280929516614a7a57614a5e90610e74565b906002190190838211614a9b57509082809295614a50565b60028114908115614f27575b5015614ae257508192614ec1565b600391501480614f38575b5f614f19565b506004601f8560031c1614614f32565b50600381148015614eb757506003601f86821c1614614eb7565b9060ff80614f7281841685610e24565b51169283156116195781614f868486615e24565b166001948582146150c457506004918282146150565760068214615048576008821461503a57600a821461502c5750600d14614fc457505050505f90565b601f600784169360031c16925f816002115f14615018575060020382811161489d57925f816007115f1461483c57506007039082821161481057509181168381111593846148035750836147e15750505090565b9060011901908382116148dd5750926147ad565b925050506113a09250613589565b925050506113a09250612b8b565b925050506113a09250611dcf565b5050601f600784959395169360031c16925f816002115f146150b0575060020384811161489d57925f816007115f146149c457506007039084821161481057509183168181149390846149b7578415614992575050505090565b9060011901908582116148dd57509261495c565b9150505f939293908381148015615167575b1561512c5750505f925b6007601f8260031c1691165f816002115f14615114575060020390828211610d20578280929516614a7a57614a5e90610e74565b906001190190838211614a9b57509082809295614a50565b60028114908115615146575b5015614ae2575081926150e0565b600391501480615157575b5f615138565b506004601f8560031c1614615151565b506003811480156150d657506003601f86821c16146150d6565b9060ff8061519181841685610e24565b511692831561161957816151a58486615e24565b1660019485821461530757506004918282146152835760068214615275576008821461526757600a82146152595750600d146151e357505050505f90565b601f600784169360031c16925f816005115f14615245575060050382811161489d57905b82841161481057501682811115928361523a575b508261522657505090565b1580159250615233575090565b9050151590565b82111592505f61521b565b9060041901908382116148dd575090615207565b925050506113a092506136ee565b925050506113a09250612cb4565b925050506113a09250611efc565b5050601f600784169360031c16925f816005115f146152f3575060050382811161489d57905b8284116148105750169180831492836152e8575b83156152c95750505090565b600214925090826152de5750505f808061141e565b1490505f80611430565b6002831493506152bd565b9060041901908382116148dd5750906152a9565b9150505f9392939083811480156153c2575b156153875750505f925b6007601f8260031c1691165f816005115f1461536f575060050390828211610d2057828092955b166153665761535890610e74565b16159283614a6e5750505090565b61535890610edc565b906004190190838211614a9b5750908280929561534a565b600281149081156153a1575b5015614ae257508192615323565b6003915014806153b2575b5f615393565b506004601f8560031c16146153ac565b5060038114801561531957506003601f86821c1614615319565b9060ff806153ec81841685610e24565b511692831561161957816154008486615e24565b1660019485821461551557506004918282146154bd57600682146154af57600882146154a157600a82146154935750600d1461543e57505050505f90565b601f600784169360031c16925f816006115f1461547f575060060382811161489d579082841161481057501682811115928361523a57508261522657505090565b9060051901908382116148dd575090615207565b925050506113a09250613852565b925050506113a09250612ddc565b925050506113a09250612028565b5050601f600784169360031c16925f816006115f14615501575060060382811161489d57908284116148105750169180831492836152e85783156152c95750505090565b9060051901908382116148dd5750906152a9565b9150505f9392939083811480156155b8575b1561557d5750505f925b6007601f8260031c1691165f816006115f14615565575060060390828211610d205782809295166153665761535890610e74565b906005190190838211614a9b5750908280929561534a565b60028114908115615597575b5015614ae257508192615531565b6003915014806155a8575b5f615589565b506004601f8560031c16146155a2565b5060038114801561552757506003601f86821c1614615527565b9060ff806155e281841685610e24565b511692831561161957816155f68486615e24565b1660019485821461570b57506004918282146156b357600682146156a5576008821461569757600a82146156895750600d1461563457505050505f90565b601f600784169360031c16925f816003115f14615675575060030382811161489d579082841161481057501682811115928361523a57508261522657505090565b9060021901908382116148dd575090615207565b925050506113a092506139b6565b925050506113a09250612f04565b925050506113a09250612154565b5050601f600784169360031c16925f816003115f146156f7575060030382811161489d57908284116148105750169180831492836152e85783156152c95750505090565b9060021901908382116148dd5750906152a9565b9150505f9392939083811480156157ae575b156157735750505f925b6007601f8260031c1691165f816003115f1461575b575060030390828211610d205782809295166153665761535890610e74565b906002190190838211614a9b5750908280929561534a565b6002811490811561578d575b5015614ae257508192615727565b60039150148061579e575b5f61577f565b506004601f8560031c1614615798565b5060038114801561571d57506003601f86821c161461571d565b9060ff806157d881841685610e24565b511692831561161957816157ec8486615e24565b1660019485821461590157506004918282146158a9576006821461589b576008821461588d57600a821461587f5750600d1461582a57505050505f90565b601f600784169360031c16925f816002115f1461586b575060020382811161489d579082841161481057501682811115928361523a57508261522657505090565b9060011901908382116148dd575090615207565b925050506113a09250613b1d565b925050506113a0925061302f565b925050506113a09250612283565b5050601f600784169360031c16925f816002115f146158ed575060020382811161489d57908284116148105750169180831492836152e85783156152c95750505090565b9060011901908382116148dd5750906152a9565b9150505f9392939083811480156159a4575b156159695750505f925b6007601f8260031c1691165f816002115f14615951575060020390828211610d205782809295166153665761535890610e74565b906001190190838211614a9b5750908280929561534a565b60028114908115615983575b5015614ae25750819261591d565b600391501480615994575b5f615975565b506004601f8560031c161461598e565b5060038114801561591357506003601f86821c1614615913565b919060ff90816159d081831686610e24565b51169384156143f357826159e48387615e24565b1690600195868314615b3e575060048214615ac25760068214615ab45760088214615aa657600a8214615a985750600d14615a2157505050505f90565b80601f60078493169160031c1690601f600786169560031c16948181115f14615a895790615a4e91610eee565b935b81811115615a7a5790615a6291610eee565b92168381111593846148035750836147e15750505090565b615a8391610eee565b926147c9565b615a9291610eee565b93615a50565b919250506113a09350612693565b919250506113a09350612555565b919250506113a093506123af565b50509081601f6007839694169160031c1690601f600786169560031c16948181115f14615b2f5790615af391610eee565b935b81811115615b205790615b0791610eee565b92169281841493846149b7578415614992575050505090565b615b2991610eee565b92614978565b615b3891610eee565b93615af5565b9150505f949394908481148015615bff575b15615bbb575050815f945b81601f8460031c1691600780601f8360031c16961691168181115f14615bac5790615b8591610eee565b965b16615ba357615b9590610e74565b16149283614a6e5750505090565b615b9590610edc565b615bb591610eee565b96615b87565b60028114908115615bde575b5015615bd65750818394615b5b565b935050505090565b600391501480615bef575b5f615bc7565b506004601f8360031c1614615be9565b50600381148015615b5057506003601f84821c1614615b50565b60ff615c288184168093610e24565b5116918215615dfa57600183148015615df0575b8015615de6575b8015615ddc575b8015615dd2575b8015615dc8575b61161957600283148015615dbe575b8015615db4575b8015615daa575b8015615da0575b8015615d96575b61471e5760038314615d525750600c8214615cca5750600f146113a05760046040517fad4d102a000000000000000000000000000000000000000000000000000000008152fd5b91505080158015615d48575b8015615d3e575b6116085760388114908115615d33575b8115615d28575b50615d235760046040517fad4d102a000000000000000000000000000000000000000000000000000000008152fd5b600190565b603c9150145f615cf4565b603f81149150615ced565b5060048114615cdd565b5060078114615cd6565b915050601f915060031c166003811461160857600414615d235760046040517fad4d102a000000000000000000000000000000000000000000000000000000008152fd5b50600e8314615c83565b50600b8314615c7c565b5060098314615c75565b5060078314615c6e565b5060058314615c67565b50600d8314615c58565b50600a8314615c51565b5060088314615c4a565b5060068314615c43565b5060048314615c3c565b60046040517f07f1e778000000000000000000000000000000000000000000000000000000008152fd5b60ff168015615dfa57600181148015615fc5575b8015615fbb575b615fb457600481148015615faa575b615fa357600681148015615f99575b615f9257600881148015615f88575b615f8157600a81148015615f77575b615f7057600d81148015615f66575b8015615f5c575b615f5557600c14615ec65760046040517fad4d102a000000000000000000000000000000000000000000000000000000008152fd5b60ff16600481148015615f4b575b615f45578015908115615f3a575b8115615f2f575b8115615f24575b50615f1f5760046040517fad4d102a000000000000000000000000000000000000000000000000000000008152fd5b600890565b603f9150145f615ef0565b603881149150615ee9565b600781149150615ee2565b50600d90565b50603c8114615ed4565b5050600d90565b50600f8114615e91565b50600e8114615e8a565b5050600a90565b50600b8114615e7b565b5050600890565b5060098114615e6c565b5050600690565b5060078114615e5d565b5050600490565b5060058114615e4e565b5050600190565b5060038114615e3f565b5060028114615e38565b60ff16801561160857600b8114908115616008575b8115615ffd575b8115615ff5575090565b600591501490565b600781149150615feb565b600981149150615fe4565b60ff16801561160857600a811490811561604c575b8115616041575b8115616039575090565b600491501490565b60068114915061602f565b600881149150616028565b805f0b607f198114616076575f80821261607057505090565b03919050565b5050607f90565b61608690610f02565b6160b260ff60208301511680155f146160cd576160aa60ff60e08501511691610e9a565b9083516146bf565b15611608576160c090616159565b6160c957600190565b5f90565b6160aa60ff6101008501511691610e9a565b6160e890610f02565b61610c60ff60208301511680155f146160cd576160aa60ff60e08501511691610e9a565b611608576160c090616159565b805160011015610e355760400190565b805160021015610e355760600190565b805160031015610e355760800190565b805160041015610e355760a00190565b60ff602090808284015116925f5b60408184168181101561155657808561618281938751610e24565b51168061619c575b5050505061619790610de9565b616167565b88836161aa82888a51615c19565b160361618a57846161ba91615e24565b905f938915916001809581951614935b6161d9575b505086925061618a565b88869b979a92939699959998949816838110156163ff5781146163f157825160c0810181811067ffffffffffffffff821117610dbc57845260058082528382019160a0368437805115610e35575f8b9352885f146163bd57600a61623c82616119565b52600861624882616129565b52600661625482616139565b52600461626082616149565b525b82616351575b875f841561634b57508c935b5f901561634557506004935b165b8884168111156162ae575050505061629e899a9b999899610de9565b95929199949893979a969a6161ca565b8151811015610e35578a8f8f90816162d38c838f8d898c1b8b01015116958692611303565b6162ea575b505050506162e590610d12565b616282565b916162fa9161631394938d613feb565b8c156163345761042f8c60e083015116915b5192610e9a565b15616322578a8f8f81906162d8565b50505050505050505050505091505090565b61042f8c610100830151169161630c565b93616280565b93616274565b915087806163ad575b8d8161639c575b50801561636f575b91616268565b508a89148061638d575b80156163695750601f8d60031c1615616369565b508a601f8d60031c1614616379565b60031c601f1660071490508d616361565b506006601f8d60031c161461635a565b600b6163c882616119565b5260096163d482616129565b5260076163e082616139565b52816163eb82616149565b52616262565b61629e899a9b999899610de9565b508199969a508498508397506161cf56fea264697066735822122089606239008e19665b438cd62b1fa33b1bf4920248d1d56317a0fe10fe5c853164736f6c63430008140033","linkReferences":{}},"methodIdentifiers":{"decodeState(uint256)":"4537a22e","games(uint256)":"117a5b90","getGameInfo(uint256)":"47e1d550","getGameState(uint256)":"ffde0c74","makeMove(uint256,uint8,uint8,uint8)":"4a14a6cc","nextGameId()":"b135bbb0","startGame(address)":"9c3e21ae"},"id":18}