{"abi":[{"type":"function","name":"decodeState","inputs":[{"name":"_encodedState","type":"uint256","internalType":"uint256"}],"outputs":[{"name":"","type":"tuple","internalType":"struct ChessLogic.DecodedState","components":[{"name":"board","type":"uint8[64]","internalType":"uint8[64]"},{"name":"turn","type":"uint8","internalType":"uint8"},{"name":"enPassantTargetSquare","type":"int16","internalType":"int16"},{"name":"whiteKingsideCastle","type":"bool","internalType":"bool"},{"name":"whiteQueensideCastle","type":"bool","internalType":"bool"},{"name":"blackKingsideCastle","type":"bool","internalType":"bool"},{"name":"blackQueensideCastle","type":"bool","internalType":"bool"},{"name":"whiteKingSquare","type":"uint8","internalType":"uint8"},{"name":"blackKingSquare","type":"uint8","internalType":"uint8"}]}],"stateMutability":"pure"},{"type":"function","name":"games","inputs":[{"name":"","type":"uint256","internalType":"uint256"}],"outputs":[{"name":"player1","type":"address","internalType":"address"},{"name":"player2","type":"address","internalType":"address"},{"name":"encodedState","type":"uint256","internalType":"uint256"},{"name":"status","type":"uint8","internalType":"enum Chess.GameStatus"}],"stateMutability":"view"},{"type":"function","name":"getGameInfo","inputs":[{"name":"_gameId","type":"uint256","internalType":"uint256"}],"outputs":[{"name":"player1","type":"address","internalType":"address"},{"name":"player2","type":"address","internalType":"address"},{"name":"status","type":"uint8","internalType":"enum Chess.GameStatus"}],"stateMutability":"view"},{"type":"function","name":"getGameState","inputs":[{"name":"_gameId","type":"uint256","internalType":"uint256"}],"outputs":[{"name":"","type":"uint256","internalType":"uint256"}],"stateMutability":"view"},{"type":"function","name":"makeMove","inputs":[{"name":"_gameId","type":"uint256","internalType":"uint256"},{"name":"_fromSquare","type":"uint8","internalType":"uint8"},{"name":"_toSquare","type":"uint8","internalType":"uint8"},{"name":"_promotionPieceType","type":"uint8","internalType":"uint8"}],"outputs":[],"stateMutability":"nonpayable"},{"type":"function","name":"nextGameId","inputs":[],"outputs":[{"name":"","type":"uint256","internalType":"uint256"}],"stateMutability":"view"},{"type":"function","name":"startGame","inputs":[{"name":"_opponent","type":"address","internalType":"address"}],"outputs":[{"name":"gameId","type":"uint256","internalType":"uint256"}],"stateMutability":"nonpayable"},{"type":"event","name":"GameEnded","inputs":[{"name":"gameId","type":"uint256","indexed":true,"internalType":"uint256"},{"name":"result","type":"uint8","indexed":false,"internalType":"enum Chess.GameStatus"},{"name":"winner","type":"address","indexed":false,"internalType":"address"}],"anonymous":false},{"type":"event","name":"GameStarted","inputs":[{"name":"gameId","type":"uint256","indexed":true,"internalType":"uint256"},{"name":"player1","type":"address","indexed":true,"internalType":"address"},{"name":"player2","type":"address","indexed":true,"internalType":"address"}],"anonymous":false},{"type":"event","name":"MoveMade","inputs":[{"name":"gameId","type":"uint256","indexed":true,"internalType":"uint256"},{"name":"player","type":"address","indexed":true,"internalType":"address"},{"name":"fromSquare","type":"uint8","indexed":false,"internalType":"uint8"},{"name":"toSquare","type":"uint8","indexed":false,"internalType":"uint8"},{"name":"promotionPieceType","type":"uint8","indexed":false,"internalType":"uint8"},{"name":"newState","type":"uint256","indexed":false,"internalType":"uint256"}],"anonymous":false},{"type":"error","name":"AlreadyInGame","inputs":[]},{"type":"error","name":"GameAlreadyOver","inputs":[]},{"type":"error","name":"GameNotActive","inputs":[]},{"type":"error","name":"GameNotFound","inputs":[]},{"type":"error","name":"InvalidEncoding","inputs":[]},{"type":"error","name":"InvalidMove","inputs":[]},{"type":"error","name":"InvalidOpponent","inputs":[]},{"type":"error","name":"InvalidSquare","inputs":[]},{"type":"error","name":"MoveLeavesKingInCheck","inputs":[]},{"type":"error","name":"NotPlayer","inputs":[]},{"type":"error","name":"PieceNotFound","inputs":[]}],"bytecode":{"object":"0x608080604052346100175761662f90816200001c8239f35b5f80fdfe6080806040526004361015610012575f80fd5b5f3560e01c908163117a5b9014610b53575080634537a22e14610a9257806347e1d55014610a275780634a14a6cc146103085780639c3e21ae14610107578063b135bbb0146100ea5763ffde0c7414610069575f80fd5b346100e65760206003193601126100e657600435805f525f60205273ffffffffffffffffffffffffffffffffffffffff60405f205416156100bc575f525f6020526020600260405f200154604051908152f35b60046040517f26cf189c000000000000000000000000000000000000000000000000000000008152fd5b5f80fd5b346100e6575f6003193601126100e6576020600154604051908152f35b346100e65760206003193601126100e65760043573ffffffffffffffffffffffffffffffffffffffff81168091036100e657801580156102ff575b6102d557600190815461015481610bc5565b8355805f525f60205260405f20927fffffffffffffffffffffffff0000000000000000000000000000000000000000338186541617855583828601918254161790557fc57cb75c000000000000000000000000000000000000000000000000c46ca64c81806008915b6102a7575b603091505b610272575b506020947e0e0000000000000000000000000000000000000000000000000000000f00007ffff0fffffffffffffffffffffffffffffffffffffffffffffffffffffff0ffff6003931617600282015501907fffffffffffffffffffffffffffffffffffffffffffffffffffffffffffffff008254161790556040519133827f5b11b2d1f1a29e94e8fd947f6b5b713f3dd7fa6e1d9d5b65826d69b9aeb664eb5f80a48152f35b9060ff603881841610156102a0578391600261029a9261029186610cad565b161b1792610c9c565b906101c7565b50906101cc565b909160ff601081851610156102cc5790826102c59261029186610cad565b90806101bd565b509150806101c2565b60046040517fab02711d000000000000000000000000000000000000000000000000000000008152fd5b50338114610142565b346100e65760806003193601126100e65760ff60243516602435036100e65760ff60443516604435036100e65760ff60643516606435036100e6576004355f525f60205260405f2073ffffffffffffffffffffffffffffffffffffffff8154169081156100bc576003810154600560ff8216101561074c57600160ff8216036109fd5760028201549260ff602061039e86610d91565b0151166109d05733036109a6576103b55f93610d91565b60ff60208201511660ff85160361091357604060ff6024351610801590610996575b8015610983575b6109595760ff6103f381602435168351610cd7565b5116908115801561093d575b6109135761041560643560443560243584611285565b156109135761042f90606435906044359060243590614082565b9060ff85166109025761045660ff60e0840151165b83519061045088610d3b565b91614754565b6108d85781515f5b6040811061086c57505060ff61047960019260243590616006565b1614610812575b80519060ff9260ff9460ff8716155f1461080b57600d5b5f955b604060ff881610156105a95760ff6104b481891688610cd7565b5116600d8114801561059f575b8015610587575b15610511575060ff908116036104e7576104e186610c9c565b9561049a565b60046040517fad4d102a000000000000000000000000000000000000000000000000000000008152fd5b600e8198929814908115610565575b8115610547575b50610536575b6104e190610c9c565b9660ff908116036104e7578661052d565b600c91501480610558575b8a610527565b50603c60ff821614610552565b9050600f811480610577575b90610520565b5060ff821660ff89161415610571565b50600c811480156104c85750600460ff8916146104c8565b50600f81146104c1565b85898960ff8085161480156107ff575b6104e757600f946105e69460ff9384166107f3576105db8480925b1686610cd7565b911690521690610cd7565b525f90815b604060ff8416101561061d576106179060ff61060a8186168851610cd7565b511660ff61029186610cad565b916105eb565b8381600284015560405160ff60243516815260ff60443516602082015260ff60643516604082015282606082015233907ff53a092ed0d57aa163248bb534226b63cfe10b21eb3f634548cab15d51387818608060043592a361067e8261625a565b156107815750602061069160ff92610d91565b015116610779576003905b600582101561074c5760ff7fffffffffffffffffffffffffffffffffffffffffffffffffffffffffffffff0060038301541692168092176003820155600582101561074c5773ffffffffffffffffffffffffffffffffffffffff8091600284145f146107425754165b6107126040518094610bb8565b1660208201527f69137706d65cad5bb2a9a944e02d6c3474190ffcaf7c1eb0e70474b5a52ecc62604060043592a2005b6001015416610705565b7f4e487b71000000000000000000000000000000000000000000000000000000005f52602160045260245ffd5b60029061069c565b9061078b906162b8565b61079157005b60047fffffffffffffffffffffffffffffffffffffffffffffffffffffffffffffff006003921617910155604051600481525f60208201527f69137706d65cad5bb2a9a944e02d6c3474190ffcaf7c1eb0e70474b5a52ecc62604060043592a2005b916105db8480926105d4565b5060ff808216146105b9565b600e610497565b60ff6024351660ff60443516115f1461085557601060ff610837602435604435610d7d565b160361048057600361084f60ff604435168351610cd7565b52610480565b601060ff610867604435602435610d7d565b610837565b600360ff61087a8385610cd7565b511614610890575b61088b90610bc5565b61045e565b60ff8160031c16600381145f146108bb57508060016108b261088b9385610cd7565b525b9050610882565b6004036104e7578060026108d261088b9385610cd7565b526108b4565b60046040517f637e6742000000000000000000000000000000000000000000000000000000008152fd5b61045660ff61010084015116610444565b60046040517f87822d34000000000000000000000000000000000000000000000000000000008152fd5b5060ff851660ff6109516024358451615d4e565b1614156103ff565b60046040517f4ed4a687000000000000000000000000000000000000000000000000000000008152fd5b5060ff6044351660ff60243516146103de565b50604060ff6044351610156103d7565b60046040517fa717dfcc000000000000000000000000000000000000000000000000000000008152fd5b5073ffffffffffffffffffffffffffffffffffffffff60018301541633036109a6576103b5600193610d91565b60046040517fd6eab5bb000000000000000000000000000000000000000000000000000000008152fd5b346100e65760206003193601126100e6576004355f525f60205260405f2073ffffffffffffffffffffffffffffffffffffffff808254169081156100bc578260ff6003610a90936001606097015416920154169060405193845260208401526040830190610bb8565bf35b346100e6576020806003193601126100e657610aac610c00565b50610ab8600435610d91565b90604051908251825f905b60408210610b3b576109008560ff61010089828982015116610800850152604081015160010b610820850152606081015115156108408501526080810151151561086085015260a0810151151561088085015260c081015115156108a08501528260e0820151166108c08501520151166108e0820152f35b838060019260ff865116815201930191019091610ac3565b346100e65760206003193601126100e6576080906004355f525f602052610a9060405f2073ffffffffffffffffffffffffffffffffffffffff90818154169160018201541660ff60036002840154930154169285526020850152604084015260608301905b90600582101561074c5752565b5f198114610bd35760010190565b7f4e487b71000000000000000000000000000000000000000000000000000000005f52601160045260245ffd5b60405167ffffffffffffffff9190610120810183811182821017610c6f57819361092083019082821090821117610c6f5760405261080036823781526101005f918260208201528260408201528260608201528260808201528260a08201528260c08201528260e08201520152565b7f4e487b71000000000000000000000000000000000000000000000000000000005f52604160045260245ffd5b60ff1660ff8114610bd35760010190565b60021b906103fc60fc831692168203610bd357565b60031b906107f860f8831692168203610bd357565b906040811015610ce85760051b0190565b7f4e487b71000000000000000000000000000000000000000000000000000000005f52603260045260245ffd5b60ff60089116019060ff8211610bd357565b9060ff8091169116019060ff8211610bd357565b60ff166001039060ff8211610bd357565b60ff7ffffffffffffffffffffffffffffffffffffffffffffffffffffffffffffffff89116019060ff8211610bd357565b9060ff8091169116039060ff8211610bd357565b90610d9a610c00565b91604092838101915f19835260ff905f9360e084019383855261010081019380855286905b60ff8216908a821015610ee857600f808760ff610ddb87610cad565b161c169081610deb858851610cd7565b526003808314610e7b575b508103610e0f57505050610e0981610c9c565b90610dbf565b90929198600d82145f14610e2a5750978752610e0990610c9c565b600e8203610e3f5750978652610e0990610c9c565b98600c610e09939214610e53575b50610c9c565b60048103610e645788525b5f610e4d565b603c8114610e73575b50610e5e565b87525f610e6d565b85811c601f16908103610ea1575060ff610e9486610d4c565b1660010b87525b5f610df6565b6004908103610ec1575060ff610eb686610d15565b1660010b8752610e9b565b8d517fad4d102a000000000000000000000000000000000000000000000000000000008152fd5b97935050509695915060ff85169060ff82145f1461115557505060ff835260ff82525f5b60ff811686811015610fa95760ff610f25828a51610cd7565b5116600d81148015610f94575b15610f4857508452610f4390610c9c565b610f0c565b600e81148015610f7f575b15610f6457508352610f4390610c9c565b600f915014610f77575b610f4390610c9c565b935083610f6e565b50600c81148015610f535750603c8214610f53565b50600c81148015610f32575060048214610f32565b5090949391929160ff9081169150811461111057815160ff1681036110eb57505f602086015260ff80835116146110c25760ff80915b86518260808201600c918183828194511614806110b3575b151560608d0152511614806110a7575b151560808a01528084610780840182828251161480611097575b151560a08d01525116149182611086575b5050151560c0880152511614908115611077575b5061104e5750565b600490517fad4d102a000000000000000000000000000000000000000000000000000000008152fd5b60ff915081905116145f611046565b610700015184161490505f80611032565b5082826107e08701511614611021565b50808483511614611007565b50828260e08701511614610ff7565b600483517fad4d102a000000000000000000000000000000000000000000000000000000008152fd5b825160ff16036110c2576001602086015260ff80825116146110c25760ff8091610fdf565b508451600f60ff608083015116149081611142575b50156110c25760ff80915f602088015260048152603c8452610fdf565b610780015160ff16600e1490505f611125565b939294509460ff835260ff85525f935b60ff8516828110156112085760ff61117e828b51610cd7565b511691600d9283811480156111f3575b156111a75750508452936111a190610c9c565b93611165565b9190969250600e918281149081156111d8575b506111cb575b50506111a190610c9c565b875294506111a15f6111c0565b600c915014806111e9575b5f6111ba565b50603c81146111e3565b50600c8114801561118e57506004831461118e565b509195909493509060ff16600d8103611239575060016020870152825260ff80825116146110c25760ff8091610fdf565b600e0361125c575f6020870152815260ff80835116146110c25760ff8091610fdf565b600484517fad4d102a000000000000000000000000000000000000000000000000000000008152fd5b92611299845160ff91829182861690610cd7565b5116816112aa875182881690610cd7565b51166112b7858851615d4e565b90151590816113fe575b506113f4576112d1848392616006565b1691600183146113e657506004821461133857506006811461132d576008811461132257600a811461131757600d1461130b575050505f90565b61131492613d2d565b90565b506113149251613089565b506113149251612f37565b5061131492516123a7565b93505080601f60078593169160031c1690601f600785169460031c16938181115f146113d7579061136891610d7d565b925b818111156113c8579061137c91610d7d565b915b16916001831492836113bb575b8315611398575b50505090565b600214925090826113ae575b50505f8080611392565b6001925016145f806113a4565b828216600214935061138b565b6113d191610d7d565b9161137e565b6113e091610d7d565b9261136a565b939291505061131493611418565b5050505050505f90565b9050828061140d888a51615d4e565b92169116145f6112c1565b611423828251615d4e565b9260ff938484169385831694808611805f146118a35787806114458588610d7d565b169416918783159384938461189b575b508415611877575b505050601f8360031c1693601f8660031c16936007958682168789168181115f14611868579061148c91610d7d565b935b1561169857848061168e575b80611684575b8061166f575b611647578a809c9b94939286928361163c575b5082611631575b82611626575b82611603575b5050806115ee575b6115e057836115bf575b50826115b2575b50506114f7575b505050505050505f90565b14908580611506868651610cd7565b51161515918261159a575b505061154e57506040015190835f8360010b12159283611542575b50505061153d5780808080806114ec565b161590565b161490505f838161152c565b92939291508190508061158a575b61158357159182611577575b505061157357600190565b5f90565b16151590505f80611568565b5050505f90565b50611594836161f5565b1561155c565b600192506115a9908551615d4e565b1614855f611511565b600192501614875f6114e5565b9092508481149081156115d5575b50915f6114de565b60099150145f6115cd565b505050505050505050161590565b50826115fb8a8a51610cd7565b5116156114d4565b8161161c9293506116158c5192610d15565b1690610cd7565b511615835f6114cc565b8482161592506114c6565b6010841492506114c0565b60011492505f6114b9565b505050505092509250501480809161158a576115835715918261157757505061157357600190565b508a61167c8b8b51610cd7565b5116156114a6565b508a8416156114a0565b506008831461149a565b848096979394959061185e575b80611854575b8061183f575b611817578a809c9b9594939287928361180c575b5082611801575b826117f6575b826117da575b5050806117c5575b6115e057846117a3575b505082611796575b5050611702575050505050505f90565b15908580611711868651610cd7565b511615159182611780575b505061175357506040015190835f8360010b12159283611747575b50505061153d57808080806113f4565b161490505f8381611737565b929392915081905080611776576115835715918261157757505061157357600190565b50611594836161b1565b61178d9192508451615d4e565b1615855f61171c565b600192501614865f6116f2565b9080929450149081156117ba575b50915f806116ea565b60099150145f6117b1565b50836117d28a8a51610cd7565b5116156116e0565b816117ec9293506116158c5192610d4c565b511615845f6116d8565b8582161592506116d2565b6010851492506116cc565b60061492505f6116c5565b5050505050509250505015808091611776576115835715918261157757505061157357600190565b508a61184c8b8b51610cd7565b5116156116b1565b508a8516156116ab565b50600884146116a5565b61187191610d7d565b9361148e565b60019192939450149182611891575b5050905f878161145d565b119050865f611886565b94505f611455565b87806118af8786610d7d565b611445565b5f0b60050390607f8213607f19831217610bd357565b5f0b60070390607f8213607f19831217610bd357565b5f0b60060390607f8213607f19831217610bd357565b5f0b60030390607f8213607f19831217610bd357565b5f0b60020390607f8213607f19831217610bd357565b5f0b5f0390607f8213607f19831217610bd357565b905f0b905f0b0390607f8213607f19831217610bd357565b905f0b905f0b0190607f198212607f831317610bd357565b6007905f93601f838516860b9460031c16850b91611984856118b4565b9461198e846118ca565b9561199881616239565b6119a188616239565b890b90890b149081611af6575b880b908015611aef575b15611ae557879291836119f5928181135f14611ace57505060019889985b810b81811315611ab15750506119ef600198899261194f565b9561194f565b935b80830b60058114801590611aa5575b15611a97578686850b91858312928315611a8d575b508215611a83575b8215611a79575b50506104e75760ff611a5481611a4d611a44898316610cc2565b85831690610d27565b1684610cd7565b5116611a6e57866119ef89611a689361194f565b936119f7565b505093509350505090565b139050865f611a2a565b8581129250611a23565b821292505f611a1b565b505050509350505050600190565b508686850b1415611a06565b1215611ac5576119ef5f195b98899261194f565b6119ef84611abd565b1215611adf575f195b9889986119d6565b83611ad7565b5091945050505050565b50876119b8565b80890b151591506119ae565b6007905f93601f838516860b9460031c16850b91611b1f856118e0565b94611b29846118ca565b95611b3381616239565b611b3c88616239565b890b90890b149081611c23575b880b908015611c1c575b15611ae55787929183611b89928181135f14611ace5750506001988998810b81811315611ab15750506119ef600198899261194f565b935b80830b60068114801590611c10575b15611a97578686850b91858312928315611c06575b508215611bfc575b8215611bf2575b50506104e75760ff611bd881611a4d611a44898316610cc2565b5116611a6e57866119ef89611bec9361194f565b93611b8b565b139050865f611bbe565b8581129250611bb7565b821292505f611baf565b508686850b1415611b9a565b5087611b53565b80890b15159150611b49565b906007905f93828216850b93601f600393841c16860b92611c4f866118f6565b95611c59856118ca565b96611c6381616239565b611c6c89616239565b8a0b908a0b149081611dbb575b890b908015611db4575b15611da9578893929184611cc1928181135f14611d925750506001998a995b810b81811315611d75575050611cbb6001998a9261194f565b9661194f565b945b80840b828114801590611d69575b15611d5a578787860b91868312928315611d50575b508215611d46575b8215611d3c575b50506104e75760ff611d1681611d0f611a448a8316610cc2565b1685610cd7565b5116611d305787611cbb8a611d2a9361194f565b94611cc3565b50505093509350505090565b139050875f611cf5565b8681129250611cee565b821292505f611ce6565b50505050509350505050600190565b508787860b1415611cd1565b1215611d8957611cbb5f195b998a9261194f565b611cbb85611d81565b1215611da3575f195b998a99611ca2565b84611d9b565b509295505050505050565b5088611c83565b808a0b15159150611c79565b6007905f93601f838516860b9460031c16850b91611de48561190c565b94611dee846118ca565b95611df881616239565b611e0188616239565b890b90890b149081611ee8575b880b908015611ee1575b15611ae55787929183611e4e928181135f14611ace5750506001988998810b81811315611ab15750506119ef600198899261194f565b935b80830b60028114801590611ed5575b15611a97578686850b91858312928315611ecb575b508215611ec1575b8215611eb7575b50506104e75760ff611e9d81611a4d611a44898316610cc2565b5116611a6e57866119ef89611eb19361194f565b93611e50565b139050865f611e83565b8581129250611e7c565b821292505f611e74565b508686850b1415611e5f565b5087611e18565b80890b15159150611e0e565b6007905f93601f838516860b9460031c16850b91611f11856118b4565b94611f1b84611922565b95611f2581616239565b611f2e88616239565b890b90890b149081612014575b880b90801561200d575b15611ae55787929183611f7b928181135f14611ace5750506001988998810b81811315611ab15750506119ef600198899261194f565b935b80830b60058114801590612002575b15611a97578686850b91858312928315611ff8575b508215611fee575b8215611fe4575b50506104e75760ff611fca81611a4d611a44898316610cc2565b5116611a6e57866119ef89611fde9361194f565b93611f7d565b139050865f611fb0565b8581129250611fa9565b821292505f611fa1565b5085840b1515611f8c565b5087611f45565b80890b15159150611f3b565b6007905f93601f838516860b9460031c16850b9161203d856118e0565b9461204784611922565b9561205181616239565b61205a88616239565b890b90890b149081612140575b880b908015612139575b15611ae557879291836120a7928181135f14611ace5750506001988998810b81811315611ab15750506119ef600198899261194f565b935b80830b6006811480159061212e575b15611a97578686850b91858312928315612124575b50821561211a575b8215612110575b50506104e75760ff6120f681611a4d611a44898316610cc2565b5116611a6e57866119ef8961210a9361194f565b936120a9565b139050865f6120dc565b85811292506120d5565b821292505f6120cd565b5085840b15156120b8565b5087612071565b80890b15159150612067565b906007905f93828216850b93601f600393841c16860b9261216c866118f6565b9561217685611922565b9661218081616239565b61218989616239565b8a0b908a0b14908161226f575b890b908015612268575b15611da95788939291846121d7928181135f14611d925750506001998a99810b81811315611d75575050611cbb6001998a9261194f565b945b80840b82811480159061225d575b15611d5a578787860b91868312928315612253575b508215612249575b821561223f575b50506104e75760ff61222581611d0f611a448a8316610cc2565b5116611d305787611cbb8a6122399361194f565b946121d9565b139050875f61220b565b8681129250612204565b821292505f6121fc565b5086850b15156121e7565b50886121a0565b808a0b15159150612196565b6007905f93601f838516860b9460031c16850b916122988561190c565b946122a284611922565b956122ac81616239565b6122b588616239565b890b90890b14908161239b575b880b908015612394575b15611ae55787929183612302928181135f14611ace5750506001988998810b81811315611ab15750506119ef600198899261194f565b935b80830b60028114801590612389575b15611a97578686850b9185831292831561237f575b508215612375575b821561236b575b50506104e75760ff61235181611a4d611a44898316610cc2565b5116611a6e57866119ef896123659361194f565b93612304565b139050865f612337565b8581129250612330565b821292505f612328565b5085840b1515612313565b50876122cc565b80890b151591506122c2565b9290916007915f94601f848616870b9560031c16860b92601f858216880b9160031c16870b946123d78783611937565b966123e28688611937565b976123ec81616239565b6123f58a616239565b8b0b908b0b149081612541575b8a0b90801561253a575b1561252e5789949392918561244b928181135f1461251757505060019a8b9a5b810b818113156124fa57505061244560019a8b9261194f565b9761194f565b955b80850b8381148015906124ee575b156124de578288870b918783129283156124d4575b5082156124ca575b82156124c0575b50506104e75760ff612499816105d4611a448b8316610cc2565b51166124b357886124458b6124ad9361194f565b9561244d565b5050505093509350505090565b139050825f61247f565b8781129250612478565b821292505f612470565b5050505050509350505050600190565b508888870b141561245b565b121561250e576124455f195b9a8b9261194f565b61244586612506565b1215612528575f195b9a8b9a61242c565b85612520565b50939650505050505050565b508961240c565b808b0b15159150612402565b6007905f93601f838516860b9460031c16850b9161256a856118b4565b94612574846118ca565b9561257e81616239565b5061258887616239565b50870b8015808061267e575b8115612665575b5015611ae557879291836125d2928181135f14611ace5750506001988998810b81811315611ab15750506119ef600198899261194f565b935b80830b60058114801590612659575b15611a97578686850b9185831292831561264f575b508215612645575b821561263b575b50506104e75760ff61262181611a4d611a44898316610cc2565b5116611a6e57866119ef896126359361194f565b936125d4565b139050865f612607565b8581129250612600565b821292505f6125f8565b508686850b14156125e3565b90501580612674575b5f61259b565b5086880b1561266e565b888a0b15159150612594565b6007905f93601f838516860b9460031c16850b916126a7856118e0565b946126b1846118ca565b956126bb81616239565b506126c587616239565b50870b801580806127bb575b81156127a2575b5015611ae5578792918361270f928181135f14611ace5750506001988998810b81811315611ab15750506119ef600198899261194f565b935b80830b60068114801590612796575b15611a97578686850b9185831292831561278c575b508215612782575b8215612778575b50506104e75760ff61275e81611a4d611a44898316610cc2565b5116611a6e57866119ef896127729361194f565b93612711565b139050865f612744565b858112925061273d565b821292505f612735565b508686850b1415612720565b905015806127b1575b5f6126d8565b5086880b156127ab565b888a0b151591506126d1565b906007905f93828216850b93601f600393841c16860b926127e7866118f6565b956127f1856118ca565b966127fb81616239565b5061280588616239565b50880b801580806128fb575b81156128e2575b5015611da9578893929184612850928181135f14611d925750506001998a99810b81811315611d75575050611cbb6001998a9261194f565b945b80840b8281148015906128d6575b15611d5a578787860b918683129283156128cc575b5082156128c2575b82156128b8575b50506104e75760ff61289e81611d0f611a448a8316610cc2565b5116611d305787611cbb8a6128b29361194f565b94612852565b139050875f612884565b868112925061287d565b821292505f612875565b508787860b1415612860565b905015806128f1575b5f612818565b5087890b156128eb565b898b0b15159150612811565b6007905f93601f838516860b9460031c16850b916129248561190c565b9461292e846118ca565b9561293881616239565b5061294287616239565b50870b80158080612a38575b8115612a1f575b5015611ae5578792918361298c928181135f14611ace5750506001988998810b81811315611ab15750506119ef600198899261194f565b935b80830b60028114801590612a13575b15611a97578686850b91858312928315612a09575b5082156129ff575b82156129f5575b50506104e75760ff6129db81611a4d611a44898316610cc2565b5116611a6e57866119ef896129ef9361194f565b9361298e565b139050865f6129c1565b85811292506129ba565b821292505f6129b2565b508686850b141561299d565b90501580612a2e575b5f612955565b5086880b15612a28565b888a0b1515915061294e565b6007905f93601f838516860b9460031c16850b91612a61856118b4565b94612a6b84611922565b95612a7581616239565b50612a7f87616239565b50870b80158080612b74575b8115612b5b575b5015611ae55787929183612ac9928181135f14611ace5750506001988998810b81811315611ab15750506119ef600198899261194f565b935b80830b60058114801590612b50575b15611a97578686850b91858312928315612b46575b508215612b3c575b8215612b32575b50506104e75760ff612b1881611a4d611a44898316610cc2565b5116611a6e57866119ef89612b2c9361194f565b93612acb565b139050865f612afe565b8581129250612af7565b821292505f612aef565b5085840b1515612ada565b90501580612b6a575b5f612a92565b5086880b15612b64565b888a0b15159150612a8b565b6007905f93601f838516860b9460031c16850b91612b9d856118e0565b94612ba784611922565b95612bb181616239565b50612bbb87616239565b50870b80158080612cb0575b8115612c97575b5015611ae55787929183612c05928181135f14611ace5750506001988998810b81811315611ab15750506119ef600198899261194f565b935b80830b60068114801590612c8c575b15611a97578686850b91858312928315612c82575b508215612c78575b8215612c6e575b50506104e75760ff612c5481611a4d611a44898316610cc2565b5116611a6e57866119ef89612c689361194f565b93612c07565b139050865f612c3a565b8581129250612c33565b821292505f612c2b565b5085840b1515612c16565b90501580612ca6575b5f612bce565b5086880b15612ca0565b888a0b15159150612bc7565b906007905f93828216850b93601f600393841c16860b92612cdc866118f6565b95612ce685611922565b96612cf081616239565b50612cfa88616239565b50880b80158080612def575b8115612dd6575b5015611da9578893929184612d45928181135f14611d925750506001998a99810b81811315611d75575050611cbb6001998a9261194f565b945b80840b828114801590612dcb575b15611d5a578787860b91868312928315612dc1575b508215612db7575b8215612dad575b50506104e75760ff612d9381611d0f611a448a8316610cc2565b5116611d305787611cbb8a612da79361194f565b94612d47565b139050875f612d79565b8681129250612d72565b821292505f612d6a565b5086850b1515612d55565b90501580612de5575b5f612d0d565b5087890b15612ddf565b898b0b15159150612d06565b6007905f93601f838516860b9460031c16850b91612e188561190c565b94612e2284611922565b95612e2c81616239565b50612e3687616239565b50870b80158080612f2b575b8115612f12575b5015611ae55787929183612e80928181135f14611ace5750506001988998810b81811315611ab15750506119ef600198899261194f565b935b80830b60028114801590612f07575b15611a97578686850b91858312928315612efd575b508215612ef3575b8215612ee9575b50506104e75760ff612ecf81611a4d611a44898316610cc2565b5116611a6e57866119ef89612ee39361194f565b93612e82565b139050865f612eb5565b8581129250612eae565b821292505f612ea6565b5085840b1515612e91565b90501580612f21575b5f612e49565b5086880b15612f1b565b888a0b15159150612e42565b9290916007915f94601f848616870b9560031c16860b92601f858216880b9160031c16870b94612f678783611937565b96612f728688611937565b97612f7c81616239565b50612f8689616239565b50890b8015808061307d575b8115613064575b501561252e57899493929185612fd2928181135f1461251757505060019a8b9a810b818113156124fa57505061244560019a8b9261194f565b955b80850b838114801590613058575b156124de578288870b9187831292831561304e575b508215613044575b821561303a575b50506104e75760ff613020816105d4611a448b8316610cc2565b51166124b357886124458b6130349361194f565b95612fd4565b139050825f613006565b8781129250612fff565b821292505f612ff7565b508888870b1415612fe2565b90501580613073575b5f612f99565b50888a0b1561306d565b8a8c0b15159150612f92565b9290916007915f94601f848616870b9560031c16860b92601f858216880b9160031c16870b946130b98783611937565b966130c48688611937565b976130ce81616239565b6130d78a616239565b8b0b908b0b1490816131f7575b8a0b90811580806131eb575b81156131d2575b5081156131ca575b501561252e57899493929185613138928181135f1461251757505060019a8b9a810b818113156124fa57505061244560019a8b9261194f565b955b80850b8381148015906131be575b156124de578288870b918783129283156131b4575b5082156131aa575b82156131a0575b50506104e75760ff613186816105d4611a448b8316610cc2565b51166124b357886124458b61319a9361194f565b9561313a565b139050825f61316c565b8781129250613165565b821292505f61315d565b508888870b1415613148565b90505f6130ff565b905015806131e1575b5f6130f7565b50898b0b156131db565b8b8d0b151591506130f0565b808b0b151591506130e4565b6007905f93601f838516860b9460031c16850b91613220856118b4565b9461322a846118ca565b9561323481616239565b61323d88616239565b890b90890b14908161335c575b880b9081158080613350575b8115613337575b50811561332f575b5015611ae5578792918361329c928181135f14611ace5750506001988998810b81811315611ab15750506119ef600198899261194f565b935b80830b60058114801590613323575b15611a97578686850b91858312928315613319575b50821561330f575b8215613305575b50506104e75760ff6132eb81611a4d611a44898316610cc2565b5116611a6e57866119ef896132ff9361194f565b9361329e565b139050865f6132d1565b85811292506132ca565b821292505f6132c2565b508686850b14156132ad565b90505f613265565b90501580613346575b5f61325d565b5087890b15613340565b898b0b15159150613256565b80890b1515915061324a565b6007905f93601f838516860b9460031c16850b91613385856118e0565b9461338f846118ca565b9561339981616239565b6133a288616239565b890b90890b1490816134c1575b880b90811580806134b5575b811561349c575b508115613494575b5015611ae55787929183613401928181135f14611ace5750506001988998810b81811315611ab15750506119ef600198899261194f565b935b80830b60068114801590613488575b15611a97578686850b9185831292831561347e575b508215613474575b821561346a575b50506104e75760ff61345081611a4d611a44898316610cc2565b5116611a6e57866119ef896134649361194f565b93613403565b139050865f613436565b858112925061342f565b821292505f613427565b508686850b1415613412565b90505f6133ca565b905015806134ab575b5f6133c2565b5087890b156134a5565b898b0b151591506133bb565b80890b151591506133af565b906007905f93828216850b93601f600393841c16860b926134ed866118f6565b956134f7856118ca565b9661350181616239565b61350a89616239565b8a0b908a0b149081613629575b890b908115808061361d575b8115613604575b5081156135fc575b5015611da957889392918461356a928181135f14611d925750506001998a99810b81811315611d75575050611cbb6001998a9261194f565b945b80840b8281148015906135f0575b15611d5a578787860b918683129283156135e6575b5082156135dc575b82156135d2575b50506104e75760ff6135b881611d0f611a448a8316610cc2565b5116611d305787611cbb8a6135cc9361194f565b9461356c565b139050875f61359e565b8681129250613597565b821292505f61358f565b508787860b141561357a565b90505f613532565b90501580613613575b5f61352a565b50888a0b1561360d565b8a8c0b15159150613523565b808a0b15159150613517565b6007905f93601f838516860b9460031c16850b916136528561190c565b9461365c846118ca565b9561366681616239565b61366f88616239565b890b90890b14908161378e575b880b9081158080613782575b8115613769575b508115613761575b5015611ae557879291836136ce928181135f14611ace5750506001988998810b81811315611ab15750506119ef600198899261194f565b935b80830b60028114801590613755575b15611a97578686850b9185831292831561374b575b508215613741575b8215613737575b50506104e75760ff61371d81611a4d611a44898316610cc2565b5116611a6e57866119ef896137319361194f565b936136d0565b139050865f613703565b85811292506136fc565b821292505f6136f4565b508686850b14156136df565b90505f613697565b90501580613778575b5f61368f565b5087890b15613772565b898b0b15159150613688565b80890b1515915061367c565b6007905f93601f838516860b9460031c16850b916137b7856118b4565b946137c184611922565b956137cb81616239565b6137d488616239565b890b90890b1490816138f2575b880b90811580806138e6575b81156138cd575b5081156138c5575b5015611ae55787929183613833928181135f14611ace5750506001988998810b81811315611ab15750506119ef600198899261194f565b935b80830b600581148015906138ba575b15611a97578686850b918583129283156138b0575b5082156138a6575b821561389c575b50506104e75760ff61388281611a4d611a44898316610cc2565b5116611a6e57866119ef896138969361194f565b93613835565b139050865f613868565b8581129250613861565b821292505f613859565b5085840b1515613844565b90505f6137fc565b905015806138dc575b5f6137f4565b5087890b156138d6565b898b0b151591506137ed565b80890b151591506137e1565b6007905f93601f838516860b9460031c16850b9161391b856118e0565b9461392584611922565b9561392f81616239565b61393888616239565b890b90890b149081613a56575b880b9081158080613a4a575b8115613a31575b508115613a29575b5015611ae55787929183613997928181135f14611ace5750506001988998810b81811315611ab15750506119ef600198899261194f565b935b80830b60068114801590613a1e575b15611a97578686850b91858312928315613a14575b508215613a0a575b8215613a00575b50506104e75760ff6139e681611a4d611a44898316610cc2565b5116611a6e57866119ef896139fa9361194f565b93613999565b139050865f6139cc565b85811292506139c5565b821292505f6139bd565b5085840b15156139a8565b90505f613960565b90501580613a40575b5f613958565b5087890b15613a3a565b898b0b15159150613951565b80890b15159150613945565b906007905f93828216850b93601f600393841c16860b92613a82866118f6565b95613a8c85611922565b96613a9681616239565b613a9f89616239565b8a0b908a0b149081613bbd575b890b9081158080613bb1575b8115613b98575b508115613b90575b5015611da9578893929184613aff928181135f14611d925750506001998a99810b81811315611d75575050611cbb6001998a9261194f565b945b80840b828114801590613b85575b15611d5a578787860b91868312928315613b7b575b508215613b71575b8215613b67575b50506104e75760ff613b4d81611d0f611a448a8316610cc2565b5116611d305787611cbb8a613b619361194f565b94613b01565b139050875f613b33565b8681129250613b2c565b821292505f613b24565b5086850b1515613b0f565b90505f613ac7565b90501580613ba7575b5f613abf565b50888a0b15613ba1565b8a8c0b15159150613ab8565b808a0b15159150613aac565b6007905f93601f838516860b9460031c16850b91613be68561190c565b94613bf084611922565b95613bfa81616239565b613c0388616239565b890b90890b149081613d21575b880b9081158080613d15575b8115613cfc575b508115613cf4575b5015611ae55787929183613c62928181135f14611ace5750506001988998810b81811315611ab15750506119ef600198899261194f565b935b80830b60028114801590613ce9575b15611a97578686850b91858312928315613cdf575b508215613cd5575b8215613ccb575b50506104e75760ff613cb181611a4d611a44898316610cc2565b5116611a6e57866119ef89613cc59361194f565b93613c64565b139050865f613c97565b8581129250613c90565b821292505f613c88565b5085840b1515613c73565b90505f613c2b565b90501580613d0b575b5f613c23565b5087890b15613d05565b898b0b15159150613c1c565b80890b15159150613c10565b613d38828251615d4e565b926007831693601f8460031c166007831695601f8460031c16968181115f146140735790613d6591610d7d565b955b818111156140655790613d7991610d7d565b60ff809616908660018311159283614057575b83614034575b50505061402a578484169060028680851694878587115f1461401b57613db791610d7d565b1614613dc7575050505050505f90565b613ddc613dd382610d3b565b80968651614754565b6113f4578516801580614011575b15613ef35750506006811480613ee6575b613e935760021480613e86575b613e1b575050505b5f80808080806113f4565b805183606082015116159384613e77575b84613e68575b5083613e53575b5082613e4457505090565b613e4f9250516146de565b1590565b613e609193508290614668565b15915f613e39565b6020820151161593505f613e32565b60408201518116159450613e2c565b5060808101511515613e08565b5080518360a082015116159384613ed7575b5083613ec2575b5082613eb757505090565b613e4f9250516145f2565b613ecf919350829061457c565b15915f613eac565b60c0820151161593505f613ea5565b5060608201511515613dfb565b6001149081614006575b50613f0c575b50505050613e10565b603e811480613ff9575b613fa457603a1480613f97575b613f2d5780613f03565b80518361076082015116159384613f87575b84613f77575b5083613f62575b5082613f5757505090565b613e4f925051614506565b613f6f9193508290614490565b15915f613f4c565b610720820151161593505f613f45565b6107408201518116159450613f3f565b5060c08101511515613f23565b508051836107a082015116159384613fe9575b5083613fd4575b5082613fc957505090565b613e4f92505161441a565b613fe1919350829061439a565b15915f613fbe565b6107c0820151161593505f613fb7565b5060a08201511515613f16565b603c9150145f613efd565b5060048214613dea565b9061402591610d7d565b613db7565b5050505050600190565b158015935090919061404b575b50505f8681613d92565b1615159050855f614041565b600183831611159350613d8c565b61406e91610d7d565b613d79565b61407c91610d7d565b95613d67565b9291909161408e610c00565b50835160ff928391826140a48188168093610cd7565b5116916140b2878951615d4e565b94846140be8986616006565b169360018514908180614389575b80614378575b6142ff575b8387169984868c11156142f157906140ee91610d7d565b600d8714978891826142e4575b5050614230575b5f95614152959493929190600c8203614209578888146141d45750508888161586146141cb57601f600d5b935b60031c169061417b575b505086614147898b51610cd7565b911690528751610cd7565b5261415d5750505090565b166141705760e08201525b5f8080611392565b610100820152614168565b88881690811591826141c0575b82156141a4575b505061419c575b80614139565b90505f614196565b6001149150816141b7575b505f8061418f565b9050155f6141af565b600782149250614188565b601f600e61412d565b9093906008146141e7575b601f9061412f565b925088881615861461420057601f60085b9390506141df565b601f60096141f8565b8888146141d457505088881615861461422757601f600d5b9361412f565b601f600e614221565b9392919060068a03614293576007946005968c600c8c614258816008945b519b16809b610cd7565b51160361091357614285614152988f5f9b938f61427b8e96828551911690610cd7565b9116905251610cd7565b529650909192939450614102565b60028a036142b0575f946003968c600c8c6142588160089461424e565b603e8a036142ce57603f94603d968c600c8c6142588160099461424e565b603894603b968c600c8c6142588160099461424e565b600292501614895f6140fb565b6142fa91610d7d565b6140ee565b878916965086614368578a61431385610d4c565b975b8a82519981614327818316809d610cd7565b51161515938461434f575b505050505f14610913575f6143498a988d51610cd7565b526140d7565b61435c9293945051615d4e565b1614155f8a818e614332565b8a61437285610d15565b97614315565b508660408c015116878516146140d2565b505f60408c015160010b12156140cc565b5f5b60ff8082166040811015614411576143b5829185610cd7565b5116806143cd575b50506143c890610c9c565b61439c565b600f036144015783905b8085169116146143e9575b5f806143bd565b6143f381836147cc565b156143e2575b505050600190565b61440b8284615d4e565b906143d7565b50505050505f90565b5f5b60ff808216604081101561441157614435829185610cd7565b51168061444d575b505061444890610c9c565b61441c565b600f036144805783905b808516911614614469575b5f8061443d565b6144738183614bf3565b1561446257505050600190565b61448a8284615d4e565b90614457565b5f5b60ff8082166040811015614411576144ab829185610cd7565b5116806144c3575b50506144be90610c9c565b614492565b600f036144f65783905b8085169116146144df575b5f806144b3565b6144e98183614e3a565b156144d857505050600190565b6145008284615d4e565b906144cd565b5f5b60ff808216604081101561441157614521829185610cd7565b511680614539575b505061453490610c9c565b614508565b600f0361456c5783905b808516911614614555575b5f80614529565b61455f8183615081565b1561454e57505050600190565b6145768284615d4e565b90614543565b5f5b60ff808216604081101561441157614597829185610cd7565b5116806145af575b50506145aa90610c9c565b61457e565b600f036145e25783905b8085169116146145cb575b5f8061459f565b6145d581836152c8565b156145c457505050600190565b6145ec8284615d4e565b906145b9565b5f5b60ff80821660408110156144115761460d829185610cd7565b511680614625575b505061462090610c9c565b6145f4565b600f036146585783905b808516911614614641575b5f80614615565b61464b8183615515565b1561463a57505050600190565b6146628284615d4e565b9061462f565b5f5b60ff808216604081101561441157614683829185610cd7565b51168061469b575b505061469690610c9c565b61466a565b600f036146ce5783905b8085169116146146b7575b5f8061468b565b6146c18183615715565b156146b057505050600190565b6146d88284615d4e565b906146a5565b5f5b60ff8082166040811015614411576146f9829185610cd7565b511680614711575b505061470c90610c9c565b6146e0565b600f036147445783905b80851691161461472d575b5f80614701565b6147378183615915565b1561472657505050600190565b61474e8284615d4e565b9061471b565b5f5b60ff80821660408110156113f45761476f829185610cd7565b511680614787575b505061478290610c9c565b614756565b600f036147bc5784905b8086169116146147a3575b5f80614777565b6147ae838284615b15565b1561479c5750505050600190565b6147c68284615d4e565b90614791565b9060ff80821692816147de8583610cd7565b5116938415614411576147f18486616006565b5f95600f03614be057600d848216036113f45783905b1690600195868314614acb5750506004918282146149f157600682146149e357600882146149d557600a82146149c75750600d1461484757505050505f90565b601f600784169360031c16925f816005115f14614987575060050382811161495b57925b5f816007115f146148fa5750600703908282116148ce57508190925b168381111593846148c1575b508361489f5750505090565b15801593509091906148b55750505f8080611392565b16151590505f806113a4565b838316111593505f614893565b6011907f4e487b71000000000000000000000000000000000000000000000000000000005f525260245ffd5b907ffffffffffffffffffffffffffffffffffffffffffffffffffffffffffffffff9019183831161492f575050819092614887565b9060116024927f4e487b7100000000000000000000000000000000000000000000000000000000835252fd5b6011827f4e487b71000000000000000000000000000000000000000000000000000000005f525260245ffd5b90600419019083821161499b57509261486b565b806011847f4e487b71000000000000000000000000000000000000000000000000000000006024945252fd5b925050506113149250613203565b92505050611314925061254d565b925050506113149250611967565b5050601f600784959395169360031c16925f816005115f14614ab7575060050384811161495b57925b5f816007115f14614a825750600703908482116148ce57508390925b16928184149384614a75575b8415614a50575b5050505090565b6002149350909183614a69575b5050505f808080614a49565b161490505f8080614a5d565b8382166002149450614a42565b907ffffffffffffffffffffffffffffffffffffffffffffffffffffffffffffffff9019185831161492f575050839092614a36565b90600419019085821161499b575092614a1a565b92508095949150603d11945f865f14614bab575080603d03848111610bd357846007915b1692165f816005115f14614b685750600503848111610bd3578490935b16614b52575084614b30575b5083614b245750505090565b161490505f8080611392565b90935060078114908115614b47575b50925f614b18565b60099150145f614b3f565b603d10945084614b30575083614b245750505090565b906004190190858211614b7e5750849093614b0c565b807f4e487b7100000000000000000000000000000000000000000000000000000000602492526011600452fd5b7fffffffffffffffffffffffffffffffffffffffffffffffffffffffffffffffc3820190858211614b7e575084600791614aef565b945082614bed8584615d4e565b95614807565b9060ff8082169281614c058583610cd7565b511693841561441157614c188486616006565b5f95600f03614e2757600d848216036113f45783905b1690600195868314614d6e575050600491828214614d005760068214614cf25760088214614ce457600a8214614cd65750600d14614c6e57505050505f90565b601f600784169360031c16925f816006115f14614cc2575060060382811161495b57925f816007115f146148fa5750600703908282116148ce57509181168381111593846148c157508361489f5750505090565b90600519019083821161499b57509261486b565b925050506113149250613368565b92505050611314925061268a565b925050506113149250611b02565b5050601f600784959395169360031c16925f816006115f14614d5a575060060384811161495b57925f816007115f14614a825750600703908482116148ce5750918316818114939084614a75578415614a50575050505090565b90600519019085821161499b575092614a1a565b92508095949150603e11945f865f14614df2575080603e03848111610bd357846007915b1692165f816006115f14614ddc5750600603848111610bd3578490935b16614dc6575084614b30575083614b245750505090565b603e10945084614b30575083614b245750505090565b906005190190858211614b7e5750849093614daf565b7fffffffffffffffffffffffffffffffffffffffffffffffffffffffffffffffc2820190858211614b7e575084600791614d92565b945082614e348584615d4e565b95614c2e565b9060ff8082169281614e4c8583610cd7565b511693841561441157614e5f8486616006565b5f95600f0361506e57600d848216036113f45783905b1690600195868314614fb5575050600491828214614f475760068214614f395760088214614f2b57600a8214614f1d5750600d14614eb557505050505f90565b601f600784169360031c16925f816003115f14614f09575060030382811161495b57925f816007115f146148fa5750600703908282116148ce57509181168381111593846148c157508361489f5750505090565b90600219019083821161499b57509261486b565b9250505061131492506134cd565b9250505061131492506127c7565b925050506113149250611c2f565b5050601f600784959395169360031c16925f816003115f14614fa1575060030384811161495b57925f816007115f14614a825750600703908482116148ce5750918316818114939084614a75578415614a50575050505090565b90600219019085821161499b575092614a1a565b92508095949150603b11945f865f14615039575080603b03848111610bd357846007915b1692165f816003115f146150235750600303848111610bd3578490935b1661500d575084614b30575083614b245750505090565b603b10945084614b30575083614b245750505090565b906002190190858211614b7e5750849093614ff6565b7fffffffffffffffffffffffffffffffffffffffffffffffffffffffffffffffc5820190858211614b7e575084600791614fd9565b94508261507b8584615d4e565b95614e75565b9060ff80821692816150938583610cd7565b5116938415614411576150a68486616006565b5f95600f036152b557600d848216036113f45783905b16906001958683146151fc57505060049182821461518e5760068214615180576008821461517257600a82146151645750600d146150fc57505050505f90565b601f600784169360031c16925f816002115f14615150575060020382811161495b57925f816007115f146148fa5750600703908282116148ce57509181168381111593846148c157508361489f5750505090565b90600119019083821161499b57509261486b565b925050506113149250613635565b925050506113149250612907565b925050506113149250611dc7565b5050601f600784959395169360031c16925f816002115f146151e8575060020384811161495b57925f816007115f14614a825750600703908482116148ce5750918316818114939084614a75578415614a50575050505090565b90600119019085821161499b575092614a1a565b92508095949150603a11945f865f14615280575080603a03848111610bd357846007915b1692165f816002115f1461526a5750600203848111610bd3578490935b16615254575084614b30575083614b245750505090565b603a10945084614b30575083614b245750505090565b906001190190858211614b7e575084909361523d565b7fffffffffffffffffffffffffffffffffffffffffffffffffffffffffffffffc6820190858211614b7e575084600791615220565b9450826152c28584615d4e565b956150bc565b9060ff80821692816152da8583610cd7565b5116938415614411576152ed8486616006565b5f95600f0361550257600d848216036113f45783905b16906001958683146154675750506004918282146153e357600682146153d557600882146153c757600a82146153b95750600d1461534357505050505f90565b601f600784169360031c16925f816005115f146153a5575060050382811161495b57905b8284116148ce57501682811115928361539a575b508261538657505090565b1580159250615393575090565b9050151590565b82111592505f61537b565b90600419019083821161499b575090615367565b92505050611314925061379a565b925050506113149250612a44565b925050506113149250611ef4565b5050601f600784169360031c16925f816005115f14615453575060050382811161495b57905b8284116148ce575016918083149283615448575b83156154295750505090565b6002149250908261543e5750505f8080611392565b1490505f806113a4565b60028314935061541d565b90600419019083821161499b575090615409565b92508095949150600511945f865f146154eb575080600503848111610bd357846007915b1692165f816005115f146154d55750600503848111610bd3578490935b166154bf575084614b30575083614b245750505090565b600510945084614b30575083614b245750505090565b906004190190858211614b7e57508490936154a8565b600419820190858211614b7e57508460079161548b565b94508261550f8584615d4e565b95615303565b9060ff80821692816155278583610cd7565b51169384156144115761553a8486616006565b5f95600f0361570257600d848216036113f45783905b169060019586831461566757505060049182821461560f576006821461560157600882146155f357600a82146155e55750600d1461559057505050505f90565b601f600784169360031c16925f816006115f146155d1575060060382811161495b57908284116148ce57501682811115928361539a57508261538657505090565b90600519019083821161499b575090615367565b9250505061131492506138fe565b925050506113149250612b80565b925050506113149250612020565b5050601f600784169360031c16925f816006115f14615653575060060382811161495b57908284116148ce5750169180831492836154485783156154295750505090565b90600519019083821161499b575090615409565b92508095949150600611945f865f146156eb575080600603848111610bd357846007915b1692165f816006115f146156d55750600603848111610bd3578490935b166156bf575084614b30575083614b245750505090565b600610945084614b30575083614b245750505090565b906005190190858211614b7e57508490936156a8565b600519820190858211614b7e57508460079161568b565b94508261570f8584615d4e565b95615550565b9060ff80821692816157278583610cd7565b51169384156144115761573a8486616006565b5f95600f0361590257600d848216036113f45783905b169060019586831461586757505060049182821461580f576006821461580157600882146157f357600a82146157e55750600d1461579057505050505f90565b601f600784169360031c16925f816003115f146157d1575060030382811161495b57908284116148ce57501682811115928361539a57508261538657505090565b90600219019083821161499b575090615367565b925050506113149250613a62565b925050506113149250612cbc565b92505050611314925061214c565b5050601f600784169360031c16925f816003115f14615853575060030382811161495b57908284116148ce5750169180831492836154485783156154295750505090565b90600219019083821161499b575090615409565b92508095949150600311945f865f146158eb575080600303848111610bd357846007915b1692165f816003115f146158d55750600303848111610bd3578490935b166158bf575084614b30575083614b245750505090565b600310945084614b30575083614b245750505090565b906002190190858211614b7e57508490936158a8565b600219820190858211614b7e57508460079161588b565b94508261590f8584615d4e565b95615750565b9060ff80821692816159278583610cd7565b51169384156144115761593a8486616006565b5f95600f03615b0257600d848216036113f45783905b1690600195868314615a67575050600491828214615a0f5760068214615a0157600882146159f357600a82146159e55750600d1461599057505050505f90565b601f600784169360031c16925f816002115f146159d1575060020382811161495b57908284116148ce57501682811115928361539a57508261538657505090565b90600119019083821161499b575090615367565b925050506113149250613bc9565b925050506113149250612dfb565b92505050611314925061227b565b5050601f600784169360031c16925f816002115f14615a53575060020382811161495b57908284116148ce5750169180831492836154485783156154295750505090565b90600119019083821161499b575090615409565b92508095949150600211945f865f14615aeb575080600203848111610bd357846007915b1692165f816002115f14615ad55750600203848111610bd3578490935b16615abf575084614b30575083614b245750505090565b600210945084614b30575083614b245750505090565b906001190190858211614b7e5750849093615aa8565b600119820190858211614b7e575084600791615a8b565b945082615b0f8584615d4e565b95615950565b919060ff908181169382615b298683610cd7565b51169081156113f457615b3c8383616006565b5f92600f03615d3b57600d858216036114ec5784905b1691600196878414615cad57505060048214615c315760068214615c235760088214615c1557600a8214615c075750600d14615b9057505050505f90565b80601f60078493169160031c1690601f600786169560031c16948181115f14615bf85790615bbd91610d7d565b935b81811115615be95790615bd191610d7d565b92168381111593846148c157508361489f5750505090565b615bf291610d7d565b92614887565b615c0191610d7d565b93615bbf565b919250506113149350613089565b919250506113149350612f37565b9192505061131493506123a7565b50509081601f6007839694169160031c1690601f600786169560031c16948181115f14615c9e5790615c6291610d7d565b935b81811115615c8f5790615c7691610d7d565b9216928184149384614a75578415614a50575050505090565b615c9891610d7d565b92614a36565b615ca791610d7d565b93615c64565b91509295949150838216908481831197885f14615d285760078083615cd28489610d7d565b1696169116908181115f14615d195790615ceb91610d7d565b945b16615d0557505084614b30575083614b245750505090565b11945084614b30575083614b245750505090565b615d2291610d7d565b94615ced565b60078083615d368885610d7d565b615cd2565b915083615d488483615d4e565b92615b52565b60ff615d5d8184168093610cd7565b5116918215615fdc57600183148015615fd2575b8015615fc8575b8015615fbe575b8015615fb4575b8015615faa575b61158357600283148015615fa0575b8015615f96575b8015615f8c575b8015615f82575b8015615f78575b6143f95760038314615f355750600c8214615ea957600f8214615dff5760046040517fad4d102a000000000000000000000000000000000000000000000000000000008152fd5b60a46040517f08c379a000000000000000000000000000000000000000000000000000000000815260206004820152604260248201527f43616e6e6f742064657465726d696e6520636f6c6f7220666f72204b494e475f60448201527f544f5f4d4f564520776974686f75742066756c6c20737461746520636f6e746560648201527f78740000000000000000000000000000000000000000000000000000000000006084820152fd5b809150158015615f2b575b8015615f21575b615f1c5760388114908115615f11575b8115615f06575b50615f015760046040517fad4d102a000000000000000000000000000000000000000000000000000000008152fd5b600190565b603c9150145f615ed2565b603f81149150615ecb565b505f90565b5060048114615ebb565b5060078114615eb4565b9050601f915060031c1660038114615f1c57600414615f015760046040517fad4d102a000000000000000000000000000000000000000000000000000000008152fd5b50600e8314615db8565b50600b8314615db1565b5060098314615daa565b5060078314615da3565b5060058314615d9c565b50600d8314615d8d565b50600a8314615d86565b5060088314615d7f565b5060068314615d78565b5060048314615d71565b60046040517f07f1e778000000000000000000000000000000000000000000000000000000008152fd5b60ff168015615fdc576001811480156161a7575b801561619d575b6161965760048114801561618c575b6161855760068114801561617b575b6161745760088114801561616a575b61616357600a81148015616159575b61615257600d81148015616148575b801561613e575b61613757600c146160a85760046040517fad4d102a000000000000000000000000000000000000000000000000000000008152fd5b60ff1660048114801561612d575b61612757801590811561611c575b8115616111575b8115616106575b506161015760046040517fad4d102a000000000000000000000000000000000000000000000000000000008152fd5b600890565b603f9150145f6160d2565b6038811491506160cb565b6007811491506160c4565b50600d90565b50603c81146160b6565b5050600d90565b50600f8114616073565b50600e811461606c565b5050600a90565b50600b811461605d565b5050600890565b506009811461604e565b5050600690565b506007811461603f565b5050600490565b5060058114616030565b5050600190565b5060038114616021565b506002811461601a565b60ff168015615f1c57600b81149081156161ea575b81156161df575b81156161d7575090565b600591501490565b6007811491506161cd565b6009811491506161c6565b60ff168015615f1c57600a811490811561622e575b8115616223575b811561621b575090565b600491501490565b600681149150616211565b60088114915061620a565b5f81810b9080821261624a57505090565b909150607f198214614b7e570390565b61626390610d91565b61628f60ff60208301511680155f146162a65761628760ff60e08501511691610d3b565b908351614754565b15615f1c5761629d90616332565b61157357600190565b61628760ff6101008501511691610d3b565b6162c190610d91565b6162e560ff60208301511680155f146162a65761628760ff60e08501511691610d3b565b615f1c5761629d90616332565b805160011015610ce85760400190565b805160021015610ce85760600190565b805160031015610ce85760800190565b805160041015610ce85760a00190565b60ff602090808284015116925f5b6040818416818110156114ec57808561635b81938751610cd7565b511680616375575b5050505061637090610c9c565b616340565b600f81036165e7578883815b1603616363578461639191616006565b905f938915916001809581951614935b6163b0575b5050869250616363565b88869b979a92939699959998949816838110156165d65781146165c857825160c0810181811067ffffffffffffffff821117610c6f57845260058082528382019160a0368437805115610ce8575f8b9352885f1461659457600a616413826162f2565b52600861641f82616302565b52600661642b82616312565b52600461643782616322565b525b82616528575b875f841561652257508c935b5f901561651c57506004935b165b8884168111156164855750505050616475899a9b999899610c9c565b95929199949893979a969a6163a1565b8151811015610ce8578a8f8f90816164aa8c838f8d898c1b8b01015116958692611285565b6164c1575b505050506164bc90610bc5565b616459565b916164d1916164ea94938d614082565b8c1561650b576104508c60e083015116915b5192610d3b565b156164f9578a8f8f81906164af565b50505050505050505050505091505090565b6104508c61010083015116916164e3565b93616457565b9361644b565b91508780616584575b8d81616573575b508015616546575b9161643f565b508a891480616564575b80156165405750601f8d60031c1615616540565b508a601f8d60031c1614616550565b60031c601f1660071490508d616538565b506006601f8d60031c1614616531565b600b61659f826162f2565b5260096165ab82616302565b5260076165b782616312565b52816165c282616322565b52616439565b616475899a9b999899610c9c565b508199969a508498508397506163a6565b88836165f4878951615d4e565b61638156fea2646970667358221220a8da451fa59b4550b795cf557551edd570fd2c10dc73db5844f338d853293efd64736f6c63430008140033","linkReferences":{}},"methodIdentifiers":{"decodeState(uint256)":"4537a22e","games(uint256)":"117a5b90","getGameInfo(uint256)":"47e1d550","getGameState(uint256)":"ffde0c74","makeMove(uint256,uint8,uint8,uint8)":"4a14a6cc","nextGameId()":"b135bbb0","startGame(address)":"9c3e21ae"},"id":20}