{"abi":[{"type":"function","name":"BLACK","inputs":[],"outputs":[{"name":"","type":"uint8","internalType":"uint8"}],"stateMutability":"view"},{"type":"function","name":"BOARD_SIZE","inputs":[],"outputs":[{"name":"","type":"uint8","internalType":"uint8"}],"stateMutability":"view"},{"type":"function","name":"B_BISHOP","inputs":[],"outputs":[{"name":"","type":"uint8","internalType":"uint8"}],"stateMutability":"view"},{"type":"function","name":"B_KING","inputs":[],"outputs":[{"name":"","type":"uint8","internalType":"uint8"}],"stateMutability":"view"},{"type":"function","name":"B_KNIGHT","inputs":[],"outputs":[{"name":"","type":"uint8","internalType":"uint8"}],"stateMutability":"view"},{"type":"function","name":"B_PAWN","inputs":[],"outputs":[{"name":"","type":"uint8","internalType":"uint8"}],"stateMutability":"view"},{"type":"function","name":"B_QUEEN","inputs":[],"outputs":[{"name":"","type":"uint8","internalType":"uint8"}],"stateMutability":"view"},{"type":"function","name":"B_ROOK","inputs":[],"outputs":[{"name":"","type":"uint8","internalType":"uint8"}],"stateMutability":"view"},{"type":"function","name":"EMPTY","inputs":[],"outputs":[{"name":"","type":"uint8","internalType":"uint8"}],"stateMutability":"view"},{"type":"function","name":"JUST_DOUBLE_MOVED_PAWN","inputs":[],"outputs":[{"name":"","type":"uint8","internalType":"uint8"}],"stateMutability":"view"},{"type":"function","name":"KING_TO_MOVE","inputs":[],"outputs":[{"name":"","type":"uint8","internalType":"uint8"}],"stateMutability":"view"},{"type":"function","name":"SQUARE_MASK","inputs":[],"outputs":[{"name":"","type":"uint256","internalType":"uint256"}],"stateMutability":"view"},{"type":"function","name":"UNMOVED_KING_OR_ROOK","inputs":[],"outputs":[{"name":"","type":"uint8","internalType":"uint8"}],"stateMutability":"view"},{"type":"function","name":"WHITE","inputs":[],"outputs":[{"name":"","type":"uint8","internalType":"uint8"}],"stateMutability":"view"},{"type":"function","name":"W_BISHOP","inputs":[],"outputs":[{"name":"","type":"uint8","internalType":"uint8"}],"stateMutability":"view"},{"type":"function","name":"W_KING","inputs":[],"outputs":[{"name":"","type":"uint8","internalType":"uint8"}],"stateMutability":"view"},{"type":"function","name":"W_KNIGHT","inputs":[],"outputs":[{"name":"","type":"uint8","internalType":"uint8"}],"stateMutability":"view"},{"type":"function","name":"W_PAWN","inputs":[],"outputs":[{"name":"","type":"uint8","internalType":"uint8"}],"stateMutability":"view"},{"type":"function","name":"W_QUEEN","inputs":[],"outputs":[{"name":"","type":"uint8","internalType":"uint8"}],"stateMutability":"view"},{"type":"function","name":"W_ROOK","inputs":[],"outputs":[{"name":"","type":"uint8","internalType":"uint8"}],"stateMutability":"view"},{"type":"error","name":"InvalidEncoding","inputs":[]},{"type":"error","name":"InvalidMove","inputs":[]},{"type":"error","name":"InvalidPromotion","inputs":[]},{"type":"error","name":"InvalidSquare","inputs":[]},{"type":"error","name":"MoveLeavesKingInCheck","inputs":[]},{"type":"error","name":"NotYourTurn","inputs":[]},{"type":"error","name":"PieceNotFound","inputs":[]}],"bytecode":{"object":"0x6080806040523461001a576102b4908161001f823930815050f35b5f80fdfe6040608081526004361015610012575f80fd5b5f90813560e01c8063023991251461024f5780630bdc39361461023957806317aedfb314610223578063225b031d14610169578063235dc7311461020d57806357177625146102085780636a2cb52a146101f25780637b16e45c146101dc5780638963adb5146101c65780638f1c99f3146101b0578063928410391461019a578063a5915c8c14610184578063aedde0f614610153578063bc3489801461016e578063c480914614610169578063ca5b6f6314610153578063d5016a301461013d578063dc4a3e9514610127578063e1147ad4146101115763e33427b9146100f8575f80fd5b8160031936011261010d5760209051600d8152f35b5080fd5b508160031936011261010d5760209051600a8152f35b508160031936011261010d578060209151908152f35b508160031936011261010d5760209051600b8152f35b508160031936011261010d5760209051600f8152f35b610268565b508160031936011261010d576020905160078152f35b508160031936011261010d5760209051600e8152f35b508160031936011261010d576020905160058152f35b508160031936011261010d576020905160088152f35b508160031936011261010d576020905160048152f35b508160031936011261010d576020905160038152f35b508160031936011261010d576020905160098152f35b61024f565b508160031936011261010d576020905160028152f35b508160031936011261010d5760209051600c8152f35b508160031936011261010d576020905160068152f35b5f6003193601126102645760206040515f8152f35b5f80fd5b5f60031936011261026457602060405160018152f3fea26469706673582212201824869135e495ef64de2ecfd6765384ea9c8dc29930c92da73c956337d2061564736f6c63430008140033","linkReferences":{}},"methodIdentifiers":{"BLACK()":"225b031d","BOARD_SIZE()":"dc4a3e95","B_BISHOP()":"bc348980","B_KING()":"a5915c8c","B_KNIGHT()":"92841039","B_PAWN()":"235dc731","B_QUEEN()":"d5016a30","B_ROOK()":"6a2cb52a","EMPTY()":"02399125","JUST_DOUBLE_MOVED_PAWN()":"7b16e45c","KING_TO_MOVE()":"ca5b6f63","SQUARE_MASK()":"aedde0f6","UNMOVED_KING_OR_ROOK()":"17aedfb3","WHITE()":"57177625","W_BISHOP()":"0bdc3936","W_KING()":"e33427b9","W_KNIGHT()":"8963adb5","W_PAWN()":"c4809146","W_QUEEN()":"e1147ad4","W_ROOK()":"8f1c99f3"},"id":19}