{"abi":[{"type":"function","name":"arithmeticError","inputs":[],"outputs":[{"name":"","type":"bytes","internalType":"bytes"}],"stateMutability":"view"},{"type":"function","name":"assertionError","inputs":[],"outputs":[{"name":"","type":"bytes","internalType":"bytes"}],"stateMutability":"view"},{"type":"function","name":"divisionError","inputs":[],"outputs":[{"name":"","type":"bytes","internalType":"bytes"}],"stateMutability":"view"},{"type":"function","name":"encodeStorageError","inputs":[],"outputs":[{"name":"","type":"bytes","internalType":"bytes"}],"stateMutability":"view"},{"type":"function","name":"enumConversionError","inputs":[],"outputs":[{"name":"","type":"bytes","internalType":"bytes"}],"stateMutability":"view"},{"type":"function","name":"indexOOBError","inputs":[],"outputs":[{"name":"","type":"bytes","internalType":"bytes"}],"stateMutability":"view"},{"type":"function","name":"memOverflowError","inputs":[],"outputs":[{"name":"","type":"bytes","internalType":"bytes"}],"stateMutability":"view"},{"type":"function","name":"popError","inputs":[],"outputs":[{"name":"","type":"bytes","internalType":"bytes"}],"stateMutability":"view"},{"type":"function","name":"zeroVarError","inputs":[],"outputs":[{"name":"","type":"bytes","internalType":"bytes"}],"stateMutability":"view"}],"bytecode":{"object":"0x6080806040523461001a5761042f908161001f823930815050f35b5f80fdfe608060408181526004361015610013575f80fd5b5f91823560e01c90816305ee8612146102fb5750806310332977146102ae5780631de45560146102615780638995290f14610214578063986c5f68146101c7578063b22dc54d1461017a578063b67689da1461012d578063d160e4de146100e05763fa784a4414610082575f80fd5b816003193601126100dc57806100d89151907f4e487b7100000000000000000000000000000000000000000000000000000000602083015260126024830152602482526100ce8261034c565b5191829182610395565b0390f35b5080fd5b50816003193601126100dc57806100d89151907f4e487b7100000000000000000000000000000000000000000000000000000000602083015260226024830152602482526100ce8261034c565b50816003193601126100dc57806100d89151907f4e487b7100000000000000000000000000000000000000000000000000000000602083015260516024830152602482526100ce8261034c565b50816003193601126100dc57806100d89151907f4e487b7100000000000000000000000000000000000000000000000000000000602083015260316024830152602482526100ce8261034c565b50816003193601126100dc57806100d89151907f4e487b7100000000000000000000000000000000000000000000000000000000602083015260416024830152602482526100ce8261034c565b50816003193601126100dc57806100d89151907f4e487b7100000000000000000000000000000000000000000000000000000000602083015260116024830152602482526100ce8261034c565b50816003193601126100dc57806100d89151907f4e487b7100000000000000000000000000000000000000000000000000000000602083015260216024830152602482526100ce8261034c565b50816003193601126100dc57806100d89151907f4e487b7100000000000000000000000000000000000000000000000000000000602083015260016024830152602482526100ce8261034c565b91905082600319360112610348576100d892507f4e487b7100000000000000000000000000000000000000000000000000000000602083015260326024830152602482526100ce8261034c565b8280fd5b6060810190811067ffffffffffffffff82111761036857604052565b7f4e487b71000000000000000000000000000000000000000000000000000000005f52604160045260245ffd5b6020808252825181830181905293925f5b8581106103e5575050507fffffffffffffffffffffffffffffffffffffffffffffffffffffffffffffffe0601f845f6040809697860101520116010190565b8181018301518482016040015282016103a656fea26469706673582212202a0ed0364e613d90c103c06bb5d0621b25d332085a9e79a4193e4ae55c3b4b5964736f6c63430008140033","linkReferences":{}},"methodIdentifiers":{"arithmeticError()":"8995290f","assertionError()":"10332977","divisionError()":"fa784a44","encodeStorageError()":"d160e4de","enumConversionError()":"1de45560","indexOOBError()":"05ee8612","memOverflowError()":"986c5f68","popError()":"b22dc54d","zeroVarError()":"b67689da"},"id":5}